:020000040800F2
:10000000002800206D140008FD13000803140008E8
:10001000091400080F14000815140008000000005F
:100020000000000000000000000000001B14000899
:100030002714000800000000331400083F140008D3
:10004000B5140008B5140008B5140008B51400086C
:10005000B5140008B5140008B5140008B51400085C
:10006000B5140008B5140008B5140008B51400084C
:10007000B5140008B5140008B5140008B51400083C
:10008000B5140008B5140008B5140008B51400082C
:10009000B5140008B5140008B5140008B51400081C
:1000A000B5140008B5140008B5140008B51400080C
:1000B0004D140008B514000800000000B514000835
:1000C000B51400080000000000000000B51400088E
:1000D00000000000B5140008B5140008000000007E
:1000E000B5140008B5140008B5140008000000009D
:1000F0000000000000000000000000000000000000
:0C01000000000000000000005FF808F1A3
:10010C0010B5054C237833B9044B13B10448AFF345
:10011C0000800123237010BD9C0000200000000013
:10012C00E42A000808B5034B1BB103490348AFF39D
:10013C00008008BD00000000A0000020E42A000898
:10014C0080B500AF4FF400510D4801F099FC034607
:10015C001A460C4B5A604FF48041094801F090FC50
:10016C0003461A46074B9A604FF40041044801F0CD
:10017C0087FC03461A46034BDA6000BF80BD00BF04
:10018C00001001404000002080B483B000AF7860C4
:10019C00094A7B6852F82330012B06D1064A7B684A
:1001AC00002142F82310012300E0002318460C37ED
:1001BC00BD4680BC704700BFB800002080B483B03F
:1001CC0000AF7860044A7B68012142F8231000BF1D
:1001DC000C37BD4680BC7047B800002080B582B09B
:1001EC0000AFFFF7ADFF00237B606EE03B4A7B68FE
:1001FC0052F823203A497B6841F82320394A7B681E
:10020C0052F8232035497B6841F82320364A7B6815
:10021C0052F8232033497B6841F823202F4A7B680E
:10022C0052F823202F497B6851F823309A4249D148
:10023C002A4A7B6852F8232029497B6851F82330DD
:10024C009A423FD1264A7B6852F8232027497B6883
:10025C0051F823309A4217D0214A7B6852F8232058
:10026C0022497B6841F82320204A7B6852F82330CE
:10027C00002B27D11E4A7B684FF4FA7142F82310E9
:10028C007868FFF79BFF1DE0194A7B6852F8233012
:10029C005A1E17497B6841F82320154A7B6852F88F
:1002AC002330002B0ED1124A7B684FF4FA7142F8BE
:1002BC0023100E4A7B6852F82330002B02D1786849
:1002CC00FFF77CFF7B6801337B607B68032B8DDD44
:1002DC0000BF00BF0837BD4680BD00BF1000002026
:1002EC0020000020000000204000002030000020F2
:1002FC005000002080B400AF064B1B68013B054A40
:10030C001360044B5B68013B024A536000BFBD465F
:10031C0080BC70477800002080B500AF784B1B681C
:10032C00042B00F2E28001A252F823F04D030008E6
:10033C0055030008BB030008270400088B040008C1
:10034C006F4B01221A60D9E000F0EAFA6D4B5B6842
:10035C006C4A12681146184600F058FC00F062FD19
:10036C00FFF7C8FF0120FFF70FFF0346002B11D04A
:10037C00634B0D221A6000F031FA634B1B6819466F
:10038C00022000F043FC02234FF4FA7200215F4874
:10039C0000F06EFD5B4B5B68002B40F0A880584B67
:1003AC0002221A60584B5B68564A53609FE000F07B
:1003BC00B7FA544B5B68534A12681146184600F062
:1003CC0025FC00F02FFDFFF795FF0120FFF7DCFE69
:1003DC000346002B11D04A4B0D221A6000F0FEF997
:1003EC00494B1B681946022000F010FC02234FF405
:1003FC00FA720021454800F03BFD424B1B68002B74
:10040C0077D13F4B03221A603F4B9B683D4A1360E8
:10041C003D4B1B683B4A53606BE000F081FA394B53
:10042C005B68384A12681146184600F0EFFB00F082
:10043C00F9FCFFF75FFF0120FFF7A6FE0346002B38
:10044C0011D02F4B0D221A6000F0C8F92E4B1B68EF
:10045C001946022000F0DAFB02234FF4FA72002155
:10046C002A4800F005FD274B1B68002B43D1244B79
:10047C0004221A60244B5B68224A13603BE000F0B4
:10048C004FFA204B5B681F4A12681146184600F061
:10049C00BDFB00F0C7FCFFF72DFF0120FFF774FE3A
:1004AC000346002B11D0164B0D221A6000F096F962
:1004BC00154B1B681946022000F0A8FB02234FF4D1
:1004CC00FA720021114800F0D3FC0E4B1B68002B74
:1004DC0013D10B4B01221A600B4B1B68094A13609A
:1004EC00094B9B68074A536007E000BF06E000BF5A
:1004FC0004E000BF02E000BF00E000BF00BF80BD11
:10050C00C800002078000020600000203906000898
:10051C0080B500AF2E4B01221A6000F05FF92EE07F
:10052C002C4B5A682B4B1B689A4205DC294B9A685A
:10053C00284B1B689A420ADD264B03225A60254B36
:10054C005A68244B9B681344224A136017E0214BD2
:10055C005A68204B9B689A420ADD1E4B03225A6054
:10056C001C4B1A681B4B5B68D31A1A4A936006E043
:10057C00184B1A68174B5B68D31A164A9360154BC5
:10058C001A68144B5968134B9B680B449A42C7D199
:10059C00104B1B68104A13600E4B5B680E4A53607D
:1005AC000C4B9B680C4A93600B4B1B680B4A1360FB
:1005BC00094B9B68094A5360022000F0F1FD0123AE
:1005CC004FF47A720021064800F052FC00BF80BD47
:1005DC00C80000206C000020600000207800002083
:1005EC002503000880B500AF0E4B1B680F2B10D0F5
:1005FC000F2B13DC0D2B02D00E2B05D00EE0092196
:10060C00094801F06CFA0AE02421074801F067FA66
:10061C0005E01221044801F062FA00E000BF00BFBF
:10062C0080BD00BFC8000020000C014080B500AFA9
:10063C00614B1B680F2B00F084800F2B00F3B280F2
:10064C000D2B02D00E2B3ED0ACE000F0EBFBFFF7F5
:10065C00C9FF0120FFF798FD0346002B0FD0564B26
:10066C000E221A6000F0BAF8544B5B68194603204E
:10067C0000F0CCFA514B1B68514A136094E00220F5
:10068C00FFF782FD0346002B12D04C4B1B68013345
:10069C004A4A1360494B1B68632B02DD474B01220E
:1006AC001A60464B1B681946022000F0AFFA7BE03B
:1006BC000320FFF769FD0346002B75D03F4B1B68E9
:1006CC003F4A136070E000F0ADFBFFF78BFF012099
:1006DC00FFF75AFD0346002B0FD0374B0F221A6041
:1006EC0000F07CF8354B9B681946042000F08EFA1C
:1006FC00324B5B68324A536058E00220FFF744FDEE
:10070C000346002B12D02D4B5B6801332B4A5360F0
:10071C002A4B5B68632B02DD284B01225A60274B66
:10072C005B681946032000F071FA3FE00320FFF7E5
:10073C002BFD0346002B39D0204B5B68204A5360BD
:10074C0034E000F06FFBFFF74DFF0120FFF71CFDBD
:10075C000346002B02D0FFF7DBFE29E00220FFF757
:10076C0013FD0346002B12D0144B9B680133134A24
:10077C009360124B9B68632B02DD104B01229A6035
:10078C000E4B9B681946042000F040FA10E0032041
:10079C00FFF7FAFC0346002B0AD0084B9B68084A6B
:1007AC00936005E000BF04E000BF02E000BF00E082
:1007BC0000BF00BF80BD00BFC80000206C0000203F
:1007CC006000002080B500AF4FF40071024801F0CA
:1007DC0086F900BF80BD00BF0008014080B500AFA6
:1007EC0000223F21024801F062F900BF80BD00BF2A
:1007FC00000C014080B582B000AF78607B68012BA3
:10080C0003D07B68022B10D01FE00122012111487C
:10081C0001F04DF9002202210E4801F048F90022A6
:10082C0004210C4801F043F90FE00122082109488A
:10083C0001F03DF900221021064801F038F90022A0
:10084C002021044801F033F900BF00BF0837BD4632
:10085C0080BD00BF000C014080B582B000AF786055
:10086C007B68012B03D07B68022B10D01FE0002289
:10087C000121114801F01BF9012202210E4801F05F
:10088C0016F9002204210C4801F011F90FE00022A6
:10089C000821094801F00BF901221021064801F04A
:1008AC0006F900222021044801F001F900BF00BF25
:1008BC000837BD4680BD00BF000C014080B582B03A
:1008CC0000AF78607B68012B03D07B68022B10D0C3
:1008DC001FE000220121114801F0E9F80022022159
:1008EC000E4801F0E4F8012204210C4801F0DFF875
:1008FC000FE000220821094801F0D9F8002210214C
:10090C00064801F0D4F801222021044801F0CFF868
:10091C0000BF00BF0837BD4680BD00BF000C0140C2
:10092C0080B500AF174B1B68013B032B26D801A2E7
:10093C0052F823F0510900085F0900086D090008FE
:10094C007B0900080120FFF755FF0220FFF784FF09
:10095C0015E00120FFF74EFF0220FFF7AFFF0EE07E
:10096C000120FFF779FF0220FFF744FF07E0012089
:10097C00FFF7A4FF0220FFF73DFF00E000BF00BF20
:10098C0080BD00BFC800002080B500AF00F08EFD18
:10099C0000F054FA00F030F800F06AF800F0B4F807
:1009AC00104801F0E1FC01234FF47A720A210E4841
:1009BC0000F05EFA0223002232210C4800F058FAB3
:1009CC000323FA2200210A4800F052FA04234FF4C0
:1009DC00FA724FF4FA71074800F04AFA00F06CFB17
:1009EC00FCE700BFD00000202503000839060008F2
:1009FC00310E0008D107000880B590B000AF07F1A8
:100A0C00180328220021184602F05EF83B1D002234
:100A1C001A605A609A60DA601A610223BB61012382
:100A2C00BB621023FB6200237B6307F1180318469B
:100A3C0001F06EF80346002B01D000F0E1F80F2313
:100A4C007B600023BB600023FB6000233B61002321
:100A5C007B613B1D0021184601F0DAFA0346002B9E
:100A6C0001D000F0CDF800BF4037BD4680BD00007E
:100A7C0080B586B000AF07F1080300221A605A60F7
:100A8C009A60DA603B4600221A605A601D4B4FF0A8
:100A9C0080421A601B4B41F63F725A60194B002280
:100AAC009A60184B0922DA60164B00221A61154B1A
:100ABC0000229A61134801F007FC0346002B01D079
:100ACC0000F09EF84FF48053BB6007F10803194601
:100ADC000C4801F085FD0346002B01D000F090F886
:100AEC0000233B6000237B603B461946054801F020
:100AFC005DFF0346002B01D000F082F800BF1837D1
:100B0C00BD4680BDD000002080B588B000AF07F195
:100B1C00100300221A605A609A60DA602E4B9B69AF
:100B2C002D4A43F0100393612B4B9B6903F0100388
:100B3C00FB60FB68284B9B69274A43F004039361D5
:100B4C00254B9B6903F00403BB60BB68224B9B697C
:100B5C00214A43F0080393611F4B9B6903F0080380
:100B6C007B607B68002243F6FC711C4800F09FFF01
:100B7C0000223F211A4800F09AFF4FF460433B617A
:100B8C0000237B610123BB6107F110031946154853
:100B9C0000F0FCFD43F6FC733B6101237B610023F9
:100BAC00BB610223FB6107F1100319460B4800F0EF
:100BBC00EDFD3F233B6101237B610023BB610223DD
:100BCC00FB6107F110031946054800F0DFFD00BF7B
:100BDC002037BD4680BD00BF001002400008014018
:100BEC00000C01400010014080B582B000AF78606D
:100BFC00FFF7F4FA00F032FA00BF0837BD4680BDAB
:100C0C0080B400AF72B600BFFEE7000080B483B0C2
:100C1C0000AF786039607B68184A82FB031292102F
:100C2C00DB17D31A164A13607968144B83FB012324
:100C3C009A10CB17D21A13469B0013445B00CA1AA6
:100C4C000F4B5A603B680D4A82FB03129210DB1764
:100C5C00D31A0B4A93603968084B83FB01239A1013
:100C6C00CB17D21A13469B0013445B00CA1A044BD1
:100C7C00DA6000BF0C37BD4680BC7047676666669D
:100C8C008000002080B582B000AF0346FB71FB7979
:100C9C002E4AD35C03F00103DBB21A4604212C4824
:100CAC0000F005FFFB79294AD35C5B10DBB203F043
:100CBC000103DBB21A460821254800F0F8FEFB7947
:100CCC00224AD35C9B10DBB203F00103DBB21A4661
:100CDC0010211F4800F0EBFEFB791C4AD35CDB10A3
:100CEC00DBB203F00103DBB21A462021184800F0F6
:100CFC00DEFEFB79154AD35C1B11DBB203F001035A
:100D0C00DBB21A464021124800F0D1FEFB790F4AA3
:100D1C00D35C5B11DBB203F00103DBB21A4680211A
:100D2C000B4800F0C4FEFB79084AD35C9B11DBB284
:100D3C0003F00103DBB21A464FF48071044800F053
:100D4C00B6FE00BF0837BD4680BD00BF002B0008B3
:100D5C000008014080B582B000AF786001224FF4EA
:100D6C0070512C4800F0A3FE7B68032B3ED801A2E7
:100D7C0052F823F0910D0008AB0D0008C50D0008CA
:100D8C00DF0D000800224FF48061224800F08FFE36
:100D9C00214B1B68DBB21846FFF774FF27E00022DB
:100DAC004FF400611B4800F082FE1B4B5B68DBB20A
:100DBC001846FFF767FF1AE000224FF480511548E0
:100DCC0000F075FE144B9B68DBB21846FFF75AFF18
:100DDC000DE000224FF400510E4800F068FE0E4B5F
:100DEC00DB68DBB21846FFF74DFF00E000BF0B4B92
:100DFC001B780133DAB2094B1A70084B1A78084B7E
:100E0C001B789A4202D3054B00221A7000BF083798
:100E1C00BD4680BD0008014080000020CC000020B1
:100E2C00FC2A000880B500AF034B1B781846FFF76F
:100E3C0091FF00BF80BD00BFCC00002080B582B008
:100E4C0000AF0023FB7106E0FB79184600F06CF94B
:100E5C00FB790133FB71FB79132BF5D9034B002282
:100E6C001A7000BF0837BD4680BD00BFCD00002002
:100E7C00B0B48BB000AFF860B9607A60FB70754BA2
:100E8C001B78132B00F2E080724B1B78002B15D1D2
:100E9C00714AFB681360704ABB6853606E4A7B688A
:100EAC0093606D4B00221A73FB786B4A1361694B8C
:100EBC001B780133DAB2674B1A70C6E0002387F84F
:100ECC002730BB683B620023FB610023BB6132E02F
:100EDC006149BA6913469B0013449B000B441B6881
:100EEC00002B21D05C49BA6913469B0013449B002C
:100EFC000B4404331B68FA691344FB61FA693B6ABF
:100F0C009A4215D9BB6987F827305349BA691346F9
:100F1C009B0013449B000B4404331A68FB69D31ADF
:100F2C003A6A13443B6209E0BB6987F8273005E055
:100F3C00BB690133BB61BB69132BC9DD454B1B7806
:100F4C007B6117E07B695A1E434879690B469B000D
:100F5C000B449B001844404913469B0013449B00D0
:100F6C000B4404461D460FCD0FC42B6823607B69D0
:100F7C00013B7B6197F827307A699A42E2DC97F85B
:100F8C002720354913469B0013449B000B44FA68F9
:100F9C001A6097F82720304913469B0013449B0096
:100FAC000B4404333A6A1A6097F827202A491346EF
:100FBC009B0013449B000B4408337A681A6097F823
:100FCC002720254913469B0013449B000B440C33EC
:100FDC0000221A7097F82720F9781F4813469B00B7
:100FEC0013449B0003441033196097F82730122BDD
:100FFC0023D897F827305A1C174913469B001344E3
:10100C009B000B441B68002B17D097F827305A1CF9
:10101C00114913469B0013449B000B44043319687D
:10102C0097F827305A1C3B6AC91A0B4813469B0089
:10103C0013449B00034404331960064B1B780133A3
:10104C00DAB2044B1A7000E000BF2C37BD46B0BCBE
:10105C00704700BFCD0000201801002080B400AF05
:10106C00134B1B78002B1FD0124B1B68002B1CD072
:10107C00104B5B68002B05D10E4B1B7B0133DAB296
:10108C000C4B1A730B4B5B68002B0ED0094B5B6837
:10109C000A2B05D9074B5B680A3B064A536004E0F0
:1010AC00044B00225A6000E000BFBD4680BC704774
:1010BC00CD00002018010020B0B586B000AF184B51
:1010CC001B78002B28D0174B1B68002B25D0154BF9
:1010DC001B7B002B21D0134B1B7B013BDAB2114B3A
:1010EC001A73104B1B6898470E4B9B68002B14D03F
:1010FC000C4B3C1D1D460FCD0FC42B682360094BB8
:10110C001B69184600F04CF87868F968FA687B6936
:10111C00DBB2FFF7ADFE00E000BF1837BD46B0BD37
:10112C00CD0000201801002080B483B000AF78609F
:10113C001A497A6813469B0013449B000B44002207
:10114C001A6016497A6813469B0013449B000B44A3
:10115C00043300221A6011497A6813469B00134429
:10116C009B000B44083300221A600C497A68134622
:10117C009B0013449B000B440C3300221A7007494C
:10118C007A6813469B0013449B000B4410330022D7
:10119C001A6000BF0C37BD4680BC70471801002098
:1011AC0080B584B000AF7860644B1B78002B00F0E6
:1011BC00C1800023FB600023FB723AE06049FA68AF
:1011CC0013469B0013449B000B4410331B687A6836
:1011DC009A422BD10123FB72FB685A1C58491346C7
:1011EC009B0013449B000B441B68002B28D0FB680E
:1011FC005A1C534913469B0013449B000B44043365
:10120C0019684F48FA6813469B0013449B0003442B
:10121C0004331B68FA6801321944494813469B0091
:10122C0013449B0003440433196009E0FB68013349
:10123C00FB60424B1B781A46FB689342BED362E0BC
:10124C0000BF60E0FB685A1C3D4913469B001344E9
:10125C009B000B4419683A48FA6813469B001344E8
:10126C009B0003441960FB685A1C354913469B00CC
:10127C0013449B000B44043319683148FA68134635
:10128C009B0013449B00034404331960FB685A1CF5
:10129C002B4913469B0013449B000B4408331968DD
:1012AC002748FA6813469B0013449B0003440833F9
:1012BC001960FB685A1C224913469B0013449B007F
:1012CC000B440C3318781E49FA6813469B001344E0
:1012DC009B000B440C3302461A70FB685A1C1849CD
:1012EC0013469B0013449B000B441033196814489D
:1012FC00FA6813469B0013449B0003441033196097
:10130C00FB680133FB600D4B1B78013B1A46FB68F5
:10131C00934297D3FB7A002B0DD0084B1B78013BE3
:10132C001846FFF701FF054B1B78013BDAB2034B64
:10133C001A7000E000BF1037BD4680BDCD00002004
:10134C001801002080B485B000AF154B9B69144A7E
:10135C0043F001039361124B9B6903F00103BB60E3
:10136C00BB680F4BDB690E4A43F08053D3610C4BC7
:10137C00DB6903F080537B607B680A4B5B68FB6026
:10138C00FB6823F0E063FB60FB6843F08063FB6069
:10139C00044AFB68536000BF1437BD4680BC7047DD
:1013AC00001002400000014080B584B000AF7860AE
:1013BC007B681B68B3F1804F13D10C4BDB690B4A74
:1013CC0043F00103D361094BDB6903F00103FB60BC
:1013DC00FB68002200211C2000F0A1F91C2000F069
:1013EC00BAF900BF1037BD4680BD00BF00100240E7
:1013FC0080B400AFFEE780B400AFFEE780B400AF6E
:10140C00FEE780B400AFFEE780B400AFFEE780B427
:10141C0000AF00BFBD4680BC704780B400AF00BFBA
:10142C00BD4680BC704780B400AF00BFBD4680BCD9
:10143C00704780B500AF00F07FF800BF80BD0000A2
:10144C0080B500AF024800F0DBFF00BF80BD00BFDD
:10145C00D000002080B400AF00BFBD4680BC7047F8
:10146C00FFF7F8FF0B480C490C4A002302E0D45854
:10147C00C4500433C4188C42F9D3094A094C0023D4
:10148C0001E013600432A242FBD301F0F9FAFFF73A
:10149C007BFA7047000000209C000020382B0008CD
:1014AC009C000020AC020020FEE7000080B500AFDD
:1014BC00084B1B68074A43F010031360032000F02D
:1014CC0023F90F2000F008F8FFF73CFF0023184623
:1014DC0080BD00BF0020024080B582B000AF7860B4
:1014EC00124B1A68124B1B7819464FF47A73B3FBE4
:1014FC00F1F3B2FBF3F3184600F03BF90346002B73
:10150C0001D001230EE07B680F2B0AD800227968EA
:10151C004FF0FF3000F003F9064A7B68136000239C
:10152C0000E0012318460837BD4680BD900000201E
:10153C00980000209400002080B400AF054B1B786D
:10154C001A46054B1B681344034A136000BFBD4683
:10155C0080BC704798000020A802002080B400AF27
:10156C00024B1B681846BD4680BC7047A802002081
:10157C0080B485B000AF78607B6803F00703FB6034
:10158C000C4BDB68BB60BA684FF6FF031340BB60C3
:10159C00FB681A02BB68134343F0BF6343F4003388
:1015AC00BB60044ABB68D36000BF1437BD4680BC27
:1015BC00704700BF00ED00E080B400AF044BDB6867
:1015CC001B0A03F007031846BD4680BC704700BFDA
:1015DC0000ED00E080B483B000AF0346FB7197F9D7
:1015EC000730002B0BDBFB7903F01F02064997F940
:1015FC0007305B09012000FA02F241F8232000BFFA
:10160C000C37BD4680BC704700E100E080B483B06D
:10161C0000AF03463960FB7197F90730002B0ADBEA
:10162C003B68DAB20C4997F907301201D2B20B447D
:10163C0083F800230AE03B68DAB20849FB7903F02F
:10164C000F03043B1201D2B20B441A7600BF0C37C5
:10165C00BD4680BC704700BF00E100E000ED00E03B
:10166C0080B489B000AFF860B9607A60FB6803F0B1
:10167C000703FB61FB69C3F10703042B28BF042399
:10168C00BB61FB690433062B02D9FB69033B00E009
:10169C0000237B614FF0FF32BB6902FA03F3DA439C
:1016AC00BB681A407B699A404FF0FF317B6901FAA5
:1016BC0003F3D9437B680B40134318462437BD46CC
:1016CC0080BC704780B582B000AF78607B68013B0E
:1016DC00B3F1807F01D301230FE00A4A7B68013B01
:1016EC0053600F214FF0FF30FFF790FF054B0022A6
:1016FC009A60044B07221A60002318460837BD462F
:10170C0080BD00BF10E000E080B582B000AF786013
:10171C007868FFF72DFF00BF0837BD4680BD80B548
:10172C0086B000AF0346B9607A60FB7300237B611F
:10173C00FFF742FF78617A68B9687869FFF790FF24
:10174C00024697F90F3011461846FFF75FFF00BFAE
:10175C001837BD4680BD80B582B000AF0346FB7123
:10176C0097F907301846FFF735FF00BF0837BD461D
:10177C0080BD80B582B000AF78607868FFF7A2FFBB
:10178C00034618460837BD4680BD000080B48BB0B8
:10179C0000AF7860396000237B6200233B6248E134
:1017AC0001227B6A02FA03F3FB613B681B68FA694E
:1017BC001340BB61BA69FB699A4240F037813B68C0
:1017CC005B68A34A93425ED0A14A934275D8A14A62
:1017DC00934258D09F4A93426FD89F4A934252D01B
:1017EC009D4A934269D89D4A93424CD09B4A93425E
:1017FC0063D89B4A934246D0994A93425DD8122BA8
:10180C002AD8122B59D801A252F823F093180008A9
:10181C006D1800087F180008C1180008C7180008C8
:10182C00C7180008C7180008C7180008C718000810
:10183C00C7180008C7180008C7180008C718000800
:10184C00C7180008C7180008C7180008C7180008F0
:10185C007518000889180008824A934213D02CE0AE
:10186C003B68DB683B6229E03B68DB6804333B6226
:10187C0024E03B68DB6808333B621FE03B68DB68B5
:10188C000C333B621AE03B689B68002B02D10423AB
:10189C003B6213E03B689B68012B05D108233B623C
:1018AC007B68FA691A6109E008233B627B68FA6974
:1018BC005A6103E000233B6200E000BFBB69FF2BD1
:1018CC0001D87B6801E07B6804337B61BB69FF2B2B
:1018DC0002D87B6A9B0002E07B6A083B9B003B6161
:1018EC007B691A680F213B6901FA03F3DB431A4049
:1018FC00396A3B6901FA03F31A437B691A603B6846
:10190C005B6803F08053002B00F09080564B9B6972
:10191C00554A43F001039361534B9B6903F0010358
:10192C00BB60BB68514A7B6A9B08023352F8233078
:10193C00FB607B6A03F003039B000F2202FA03F3A4
:10194C00DB43FA681340FB607B68494A93420DD035
:10195C007B68484A934207D07B68474A934201D13F
:10196C00022304E0032302E0012300E000237A6A4F
:10197C0002F0030292009340FA681343FB603B4968
:10198C007B6A9B080233FA6841F823203B685B684A
:10199C0003F48013002B06D0384B9A683749BB6987
:1019AC0013438B6006E0354B9A68BB69DB433349C4
:1019BC0013408B603B685B6803F40013002B06D06C
:1019CC002E4BDA682D49BB691343CB6006E02B4BD9
:1019DC00DA68BB69DB4329491340CB603B685B6821
:1019EC0003F40033002B06D0244B5A682349BB69FF
:1019FC0013434B6006E0214B5A68BB69DB431F491C
:101A0C0013404B603B685B6803F48033002B06D0BB
:101A1C001A4B1A681949BB6913430B6006E0174B44
:101A2C001A68BB69DB43154913400B607B6A0133B1
:101A3C007B623B681A687B6A22FA03F3002B7FF403
:101A4C00AFAE00BF00BF2C37BD4680BC704700BF97
:101A5C000000321000003110000022100000211094
:101A6C000000121000001110001002400000014094
:101A7C0000080140000C014000100140000401402E
:101A8C0080B485B000AF78600B467B807B689A6829
:101A9C007B881340002B02D00123FB7301E0002351
:101AAC00FB73FB7B18461437BD4680BC704780B473
:101ABC0083B000AF78600B467B8013467B707B78DD
:101ACC00002B03D07A887B681A6103E07B881A04A8
:101ADC007B681A6100BF0C37BD4680BC704780B470
:101AEC0085B000AF78600B467B807B68DB68FB6061
:101AFC007A88FB6813401A04FB68D9437B880B4037
:101B0C001A437B681A6100BF1437BD4680BC70470E
:101B1C0080B586B000AF78607B68002B01D10123C3
:101B2C006CE27B681B6803F00103002B00F08780DC
:101B3C00924B5B6803F00C03042B0CD08F4B5B684F
:101B4C0003F00C03082B12D18C4B5B6803F480332D
:101B5C00B3F5803F0BD1894B1B6803F40033002B8A
:101B6C006CD07B685B68002B68D1012346E27B68F4
:101B7C005B68B3F5803F06D1804B1B687F4A43F40A
:101B8C00803313602EE07B685B68002B0CD17B4BA1
:101B9C001B687A4A23F480331360784B1B68774AAE
:101BAC0023F4802313601DE07B685B68B3F5A02FE2
:101BBC000CD1724B1B68714A43F4802313606F4B3A
:101BCC001B686E4A43F4803313600BE06B4B1B684D
:101BDC006A4A23F480331360684B1B68674A23F40A
:101BEC00802313607B685B68002B13D0FFF7B6FC77
:101BFC00386108E0FFF7B2FC02463B69D31A642B4C
:101C0C0001D90323FAE15D4B1B6803F40033002B6D
:101C1C00F0D014E0FFF7A2FC386108E0FFF79EFC5F
:101C2C0002463B69D31A642B01D90323E6E1534BDB
:101C3C001B6803F40033002BF0D100E000BF7B687D
:101C4C001B6803F00203002B63D04C4B5B6803F062
:101C5C000C03002B0BD0494B5B6803F00C03082BD7
:101C6C001CD1464B5B6803F48033002B16D1434BDD
:101C7C001B6803F00203002B05D07B681B69012B4A
:101C8C0001D00123BAE13D4B1B6823F0F8027B68BD
:101C9C005B69DB00394913430B603AE07B681B69D5
:101CAC00002B20D0364B01221A60FFF757FC38610D
:101CBC0008E0FFF753FC02463B69D31A022B01D90B
:101CCC0003239BE12D4B1B6803F00203002BF0D088
:101CDC002A4B1B6823F0F8027B685B69DB00274901
:101CEC0013430B6015E0264B00221A60FFF736FCFD
:101CFC00386108E0FFF732FC02463B69D31A022B2D
:101D0C0001D903237AE11D4B1B6803F00203002B5E
:101D1C00F0D17B681B6803F00803002B3AD07B687A
:101D2C009B69002B19D0174B01221A60FFF716FC88
:101D3C00386108E0FFF712FC02463B69D31A022B0C
:101D4C0001D903235AE10D4B5B6A03F00203002B0C
:101D5C00F0D0012000F09AFA1CE00A4B00221A6025
:101D6C00FFF7FCFB38610FE0FFF7F8FB02463B691D
:101D7C00D31A022B08D9032340E100BF0010024004
:101D8C0000004242800442429E4B5B6A03F0020315
:101D9C00002BE9D17B681B6803F00403002B00F0D7
:101DAC00A6800023FB75974BDB6903F08053002B57
:101DBC000DD1944BDB69934A43F08053D361914B23
:101DCC00DB6903F08053BB60BB680123FB758E4B52
:101DDC001B6803F48073002B18D18B4B1B688A4A49
:101DEC0043F480731360FFF7B9FB386108E0FFF729
:101DFC00B5FB02463B69D31A642B01D90323FDE0E2
:101E0C00814B1B6803F48073002BF0D07B68DB687C
:101E1C00012B06D17B4B1B6A7A4A43F001031362F8
:101E2C002DE07B68DB68002B0CD1764B1B6A754A66
:101E3C0023F001031362734B1B6A724A23F00403F1
:101E4C0013621CE07B68DB68052B0CD16D4B1B6AA5
:101E5C006C4A43F0040313626A4B1B6A694A43F0F1
:101E6C00010313620BE0674B1B6A664A23F0010304
:101E7C001362644B1B6A634A23F0040313627B688E
:101E8C00DB68002B15D0FFF769FB38610AE0FFF720
:101E9C0065FB02463B69D31A41F28832934201D961
:101EAC000323ABE0574B1B6A03F00203002BEED06D
:101EBC0014E0FFF753FB38610AE0FFF74FFB0246D3
:101ECC003B69D31A41F28832934201D9032395E03E
:101EDC004C4B1B6A03F00203002BEED1FB7D012B54
:101EEC0005D1484BDB69474A23F08053D3617B68AB
:101EFC00DB69002B00F08180424B5B6803F00C0324
:101F0C00082B61D07B68DB69022B46D13F4B00224A
:101F1C001A60FFF723FB386108E0FFF71FFB02464E
:101F2C003B69D31A022B01D9032367E0354B1B689D
:101F3C0003F00073002BF0D17B681B6AB3F5803F74
:101F4C0008D1304B5B6823F400327B689B682D49C9
:101F5C0013434B602B4B5B6823F474127B68196A38
:101F6C007B685B6A0B43274913434B60274B012269
:101F7C001A60FFF7F3FA386108E0FFF7EFFA024650
:101F8C003B69D31A022B01D9032337E01D4B1B6885
:101F9C0003F00073002BF0D02FE01C4B00221A60D2
:101FAC00FFF7DCFA386108E0FFF7D8FA02463B6924
:101FBC00D31A022B01D9032320E0124B1B6803F028
:101FCC000073002BF0D118E07B68DB69012B01D189
:101FDC00012313E00B4B5B68FB60FB6803F480325E
:101FEC007B681B6A9A4206D1FB6803F470127B680B
:101FFC005B6A9A4201D0012300E00023184618378F
:10200C00BD4680BD0010024000700040600042429E
:10201C0080B584B000AF786039607B68002B01D14B
:10202C000123D0E06A4B1B6803F007033A689A421D
:10203C0010D9674B1B6823F0070265493B681343B3
:10204C000B60634B1B6803F007033A689A4201D09C
:10205C000123B8E07B681B6803F00203002B20D03F
:10206C007B681B6803F00403002B05D0594B5B689D
:10207C00584A43F4E06353607B681B6803F0080321
:10208C00002B05D0534B5B68524A43F460535360AA
:10209C00504B5B6823F0F0027B689B684D491343FF
:1020AC004B607B681B6803F00103002B40D07B68FE
:1020BC005B68012B07D1474B1B6803F40033002BE3
:1020CC0015D101237FE07B685B68022B07D1414B64
:1020DC001B6803F00073002B09D1012373E03D4B07
:1020EC001B6803F00203002B01D101236BE0394B79
:1020FC005B6823F003027B685B68364913434B60D3
:10210C00FFF72CFAF8600AE0FFF728FA0246FB68A2
:10211C00D31A41F28832934201D9032353E02D4B59
:10212C005B6803F00C027B685B689B009A42EBD106
:10213C00274B1B6803F007033A689A4210D2244BD2
:10214C001B6823F0070222493B6813430B60204BAA
:10215C001B6803F007033A689A4201D0012332E06E
:10216C007B681B6803F00403002B08D0194B5B68D9
:10217C0023F4E0627B68DB68164913434B607B6891
:10218C001B6803F00803002B09D0124B5B6823F487
:10219C0060527B681B69DB000E4913434B6000F0F7
:1021AC0021F802460B4B5B681B0903F00F030A492D
:1021BC00CB5C22FA03F3094A1360094B1B681846DF
:1021CC00FFF78AF9002318461037BD4680BD00BFC3
:1021DC0000200240001002400C2B00089000002050
:1021EC009400002080B487B000AF0023FB60002374
:1021FC00BB6000237B6100237B6000233B611E4B93
:10220C005B68FB60FB6803F00C03042B02D0082B0B
:10221C0003D027E0194B3B6127E0FB689B0C03F0D4
:10222C000F03174AD35C7B60FB6803F48033002BED
:10223C0010D0114B5B685B0C03F00103114AD35CAB
:10224C00BB607B680D4A02FB03F2BB68B2FBF3F385
:10225C007B6104E07B680C4A02FB03F37B617B69C6
:10226C003B6102E0054B3B6100BF3B6918461C37E4
:10227C00BD4680BC704700BF0010024000127A00BF
:10228C001C2B00082C2B000800093D0080B485B0E5
:10229C0000AF78600A4B1B680A4AA2FB03235B0A57
:1022AC007A6802FB03F3FB6000BFFB685A1EFA60FE
:1022BC00002BF9D100BF00BF1437BD4680BC70475E
:1022CC0090000020D34D621080B582B000AF7860D2
:1022DC007B68002B01D1012341E07B6893F83D30F2
:1022EC00DBB2002B06D17B68002283F83C20786897
:1022FC00FFF75AF87B68022283F83D207B681A6846
:10230C007B6804331946104600F056FA7B680122AC
:10231C0083F846207B68012283F83E207B680122EB
:10232C0083F83F207B68012283F840207B680122E0
:10233C0083F841207B68012283F842207B680122CC
:10234C0083F843207B68012283F844207B680122B8
:10235C0083F845207B68012283F83D200023184632
:10236C000837BD4680BD000080B485B000AF7860F2
:10237C007B6893F83D30DBB2012B01D0012335E0B3
:10238C007B68022283F83D207B681B68DA687B68D7
:10239C001B6842F00102DA607B681B68164A9342A4
:1023AC0009D07B681B68B3F1804F04D07B681B6835
:1023BC00124A934211D17B681B689B6803F0070398
:1023CC00FB60FB68062B10D07B681B681A687B6867
:1023DC001B6842F001021A6007E07B681B681A68F0
:1023EC007B681B6842F001021A6000231846143700
:1023FC00BD4680BC704700BF002C0140000400406B
:10240C0080B584B000AF78607B681B68DB68FB60CC
:10241C007B681B681B69BB60BB6803F00203002B65
:10242C0020D0FB6803F00203002B1BD07B681B68D9
:10243C006FF002021A617B6801221A777B681B68B5
:10244C009B6903F00303002B03D0786800F098F924
:10245C0005E0786800F08BF9786800F09AF97B68F1
:10246C0000221A77BB6803F00403002B20D0FB6812
:10247C0003F00403002B1BD07B681B686FF0040275
:10248C001A617B6802221A777B681B689B6903F4CC
:10249C004073002B03D0786800F072F905E078687F
:1024AC0000F065F9786800F074F97B6800221A77FF
:1024BC00BB6803F00803002B20D0FB6803F0080373
:1024CC00002B1BD07B681B686FF008021A617B68BD
:1024DC0004221A777B681B68DB6903F00303002B6B
:1024EC0003D0786800F04CF905E0786800F03FF90B
:1024FC00786800F04EF97B6800221A77BB6803F00D
:10250C001003002B20D0FB6803F01003002B1BD012
:10251C007B681B686FF010021A617B6808221A77BF
:10252C007B681B68DB6903F44073002B03D078686D
:10253C0000F026F905E0786800F019F9786800F0E9
:10254C0028F97B6800221A77BB6803F00103002B83
:10255C000CD0FB6803F00103002B07D07B681B68D1
:10256C006FF001021A617868FEF73EFBBB6803F05E
:10257C008003002B0CD0FB6803F08003002B07D0EA
:10258C007B681B686FF080021A61786800F06FFA44
:10259C00BB6803F04003002B0CD0FB6803F0400336
:1025AC00002B07D07B681B686FF040021A617868BB
:1025BC0000F0F8F8BB6803F02003002B0CD0FB688C
:1025CC0003F02003002B07D07B681B686FF0200200
:1025DC001A61786800F042FA00BF1037BD4680BD22
:1025EC0080B584B000AF786039600023FB737B68E2
:1025FC0093F83C30012B01D10223B4E07B6801221B
:10260C0083F83C207B68022283F83D207B681B68A2
:10261C009B68BB60BB6823F07703BB60BB6823F48B
:10262C007F43BB607B681B68BA689A603B681B6819
:10263C00B3F5005F3ED0B3F5005F00F28780B3F5D1
:10264C00805F00F08680B3F5805F7FD8702B1AD046
:10265C00702B7BD8602B50D0602B77D8502B3CD074
:10266C00502B73D8402B58D0402B6FD8302B64D0C4
:10267C00302B6BD8202B60D0202B67D8002B5CD054
:10268C00102B5AD062E07B6818683B6899683B68ED
:10269C005A683B68DB6800F06AF97B681B689B68CA
:1026AC00BB60BB6843F07703BB607B681B68BA6890
:1026BC009A604FE07B6818683B6899683B685A6879
:1026CC003B68DB6800F053F97B681B689A687B6891
:1026DC001B6842F480429A603CE07B6818683B6857
:1026EC0059683B68DB681A4600F0CAF87B681B68BF
:1026FC005021184600F021F92CE07B6818683B68E3
:10270C0059683B68DB681A4600F0E8F87B681B6880
:10271C006021184600F011F91CE07B6818683B68D2
:10272C0059683B68DB681A4600F0AAF87B681B689E
:10273C004021184600F001F90CE07B681A683B68F0
:10274C001B681946104600F0F8F803E00123FB73F0
:10275C0000E000BF7B68012283F83D207B680022EB
:10276C0083F83C20FB7B18461037BD4680BD80B4F7
:10277C0083B000AF786000BF0C37BD4680BC70479B
:10278C0080B483B000AF786000BF0C37BD4680BC0E
:10279C00704780B483B000AF786000BF0C37BD4683
:1027AC0080BC704780B483B000AF786000BF0C373A
:1027BC00BD4680BC7047000080B485B000AF786027
:1027CC0039607B681B68FB607B682B4A934207D09F
:1027DC007B68B3F1804F03D07B68284A934208D1C1
:1027EC00FB6823F07003FB603B685B68FA6813437B
:1027FC00FB607B68204A934207D07B68B3F1804F23
:10280C0003D07B681D4A934208D1FB6823F44073C4
:10281C00FB603B68DB68FA681343FB60FB6823F0E2
:10282C0080023B685B691343FB607B68FA681A6043
:10283C003B689A687B68DA623B681A687B689A62C4
:10284C007B680D4A934203D13B681A697B681A6313
:10285C007B6801225A617B681B6903F00103002B22
:10286C0005D07B681B6923F001027B681A6100BFED
:10287C001437BD4680BC7047002C0140000400405A
:10288C0080B487B000AFF860B9607A60FB681B6AEF
:10289C007B61FB681B6A23F00102FB681A62FB6810
:1028AC009B693B613B6923F0F0033B617B681B0137
:1028BC003A6913433B617B6923F00A037B617A69B4
:1028CC00BB6813437B61FB683A699A61FB687A6960
:1028DC001A6200BF1C37BD4680BC704780B487B0FD
:1028EC0000AFF860B9607A60FB681B6A7B61FB68BB
:1028FC001B6A23F01002FB681A62FB689B693B6140
:10290C003B6923F470433B617B681B033A691343B7
:10291C003B617B6923F0A0037B61BB681B017A6977
:10292C0013437B61FB683A699A61FB687A691A62A6
:10293C0000BF1C37BD4680BC704780B485B000AF6B
:10294C00786039607B689B68FB60FB6823F07003E0
:10295C00FB603A68FB68134343F00703FB607B683A
:10296C00FA689A6000BF1437BD4680BC704780B4CB
:10297C0087B000AFF860B9607A603B60FB689B6819
:10298C007B617B6923F47F437B613B681A027B6824
:10299C001A43BB6813437A6913437B61FB687A69FA
:1029AC009A6000BF1C37BD4680BC704780B485B0B0
:1029BC0000AF786039607B6893F83C30012B01D113
:1029CC00022341E07B68012283F83C207B680222D1
:1029DC0083F83D207B681B685B68FB607B681B6829
:1029EC009B68BB60FB6823F07003FB603B681B6853
:1029FC00FA681343FB607B681B68FA685A607B6853
:102A0C001B68144A934209D07B681B68B3F1804F52
:102A1C0004D07B681B68104A93420CD1BB6823F02E
:102A2C008003BB603B685B68BA681343BB607B6820
:102A3C001B68BA689A607B68012283F83D207B682A
:102A4C00002283F83C20002318461437BD4680BC76
:102A5C00704700BF002C01400004004080B483B0DC
:102A6C0000AF786000BF0C37BD4680BC704780B4A7
:102A7C0083B000AF786000BF0C37BD4680BC704798
:102A8C0070B500260C4D0D4C641BA410A64209D148
:102A9C0000F022F800260A4D0A4C641BA410A64232
:102AAC0005D170BD55F8043B98470136EEE755F853
:102ABC00043B98470136F2E7302B0008302B000816
:102ACC00302B0008342B000803460244934200D1FB
:102ADC00704703F8011BF9E7F8B500BFF8BC08BC58
:102AEC009E467047F8B500BFF8BC08BC9E467047C0
:102AFC000400000040792430191202780010000004
:102B0C000000000000000000010203040607080991
:102B1C0002030405060708090A0B0C0D0E0F101012
:042B2C0001020000A2
:042B30003101000867
:042B34000D01000887
:102B3800010000000000000000000000000000008C
:102B4800010000000000000000000000000000007C
:102B5800010000000000000000000000000000006C
:102B6800010000000000000000000000000000005C
:102B7800010000000000000000000000000000004C
:102B8800F401000000000000000000000000000048
:102B9800050000000200000003000000050000001E
:102BA8000200000003000000050000000300000010
:102BB80003000000020000000500000005000000FE
:0C2BC80000127A00100000000100000064
:040000050800146D6E
:00000001FF
