:020000040800F2
:100000000028002049110008D9100008DF1000085E
:10001000E5100008EB100008F110000800000000D7
:10002000000000000000000000000000F7100008C1
:1000300003110008000000000F1100081B11000848
:100040009111000891110008911100089111000808
:1000500091110008911100089111000891110008F8
:1000600091110008911100089111000891110008E8
:1000700091110008911100089111000891110008D8
:1000800091110008911100089111000891110008C8
:1000900091110008911100089111000891110008B8
:1000A00091110008911100089111000891110008A8
:1000B00029110008911100080000000091110008AA
:1000C00091110008000000000000000091110008DC
:1000D00000000000911100089111000800000000CC
:1000E0009111000891110008911100080000000012
:1000F0000000000000000000000000000000000000
:0C01000000000000000000005FF808F1A3
:10010C0010B5054C237833B9044B13B10448AFF345
:10011C0000800123237010BD84000020000000002B
:10012C00C027000808B5034B1BB103490348AFF3C4
:10013C00008008BD0000000088000020C0270008D7
:10014C0080B500AF4FF400510D4801F007FB03469A
:10015C001A460C4B5A604FF48041094801F0FEFAE4
:10016C0003461A46074B9A604FF40041044801F0CD
:10017C00F5FA03461A46034BDA6000BF80BD00BF98
:10018C00001001403000002080B483B000AF7860D4
:10019C00094A7B6852F82330012B06D1064A7B684A
:1001AC00002142F82310012300E0002318460C37ED
:1001BC00BD4680BC704700BFAC00002080B483B04B
:1001CC0000AF7860094A7B6852F82330012B06D1C6
:1001DC00064A7B68002142F82310012300E000232B
:1001EC0018460C37BD4680BC704700BFA0000020ED
:1001FC0080B483B000AF7860044A7B68012142F878
:10020C00231000BF0C37BD4680BC7047AC000020EB
:10021C0080B582B000AFFFF793FF00237B606EE0E8
:10022C003B4A7B6852F823203A497B6841F82320EB
:10023C00394A7B6852F8232035497B6841F82320E2
:10024C00364A7B6852F8232033497B6841F82320D7
:10025C002F4A7B6852F823202F497B6851F82330B2
:10026C009A4249D12A4A7B6852F8232029497B6853
:10027C0051F823309A423FD1264A7B6852F823200A
:10028C0027497B6851F823309A4217D0214A7B6862
:10029C0052F8232022497B6841F82320204A7B68AE
:1002AC0052F82330002B27D11E4A7B684FF4FA7189
:1002BC0042F823107868FFF79BFF1DE0194A7B6812
:1002CC0052F823305A1E17497B6841F82320154AEF
:1002DC007B6852F82330002B0ED1124A7B684FF406
:1002EC00FA7142F823100E4A7B6852F82330002B27
:1002FC0002D17868FFF77CFF7B6801337B607B68F9
:10030C00022B8DDD00BF00BF0837BD4680BD00BF8E
:10031C000C000020180000200000002030000020FD
:10032C00240000203C00002080B500AF022000F02B
:10033C005DFE0346002B0ED0084B1B68013B074AA1
:10034C001360064B5B68013B044A53604FF47A71AF
:10035C00022000F0FBFD00BF80BD00BF600000204C
:10036C0080B500AF994B1B68042B00F2248101A2CD
:10037C0052F823F095030008A70300082B0400088B
:10038C00B704000839050008904B01221A6040F6AA
:10039C00B831002000F0DAFD16E100F041FB8C4B87
:1003AC005B688B4A12681146184600F0ADFC00F0F1
:1003BC00B7FDFFF7B9FF0120FFF7E6FE0346002B60
:1003CC0014D0824B0D221A6000F088FA814B1B6806
:1003DC001946022000F098FC4FF4FA71012000F04D
:1003EC00B5FD4FF4FA71022000F0B0FD002000F0D2
:1003FC00FDFD0346002B00F0E080744B02221A60D6
:10040C00744B5B68724A5360724B5B684FF47A7240
:10041C0002FB03F31946002000F098FDCDE000F03C
:10042C00FFFA6B4B5B686A4A12681146184600F07B
:10043C006BFC00F075FDFFF777FF0120FFF7A4FEC2
:10044C000346002B14D0614B0D221A6000F046FAC3
:10045C00604B1B681946022000F056FC4FF4FA71F1
:10046C00012000F073FD4FF4FA71022000F06EFDD4
:10047C00002000F0BBFD0346002B00F0A080534B86
:10048C0003221A60534B9B68514A1360514B1B68F3
:10049C004F4A53604F4B9B684FF47A7202FB03F345
:1004AC001946002000F052FD89E000F0B9FA484BE3
:1004BC005B68474A12681146184600F025FC00F0AC
:1004CC002FFDFFF731FF0120FFF75EFE0346002BE7
:1004DC0014D03E4B0D221A6000F000FA3D4B1B6805
:1004EC001946022000F010FC4FF4FA71012000F0C4
:1004FC002DFD4FF4FA71022000F028FD002000F0D1
:10050C0075FD0346002B5CD0304B04221A60314B36
:10051C005B682F4A13602F4B5B684FF47A7202FBB7
:10052C0003F31946002000F011FD4AE000F078FAC0
:10053C00274B5B68264A12681146184600F0E4FB0C
:10054C0000F0EEFCFFF7F0FE0120FFF71DFE034666
:10055C00002B14D01D4B0D221A6000F0BFF91D4B5F
:10056C001B681946022000F0CFFB4FF4FA710120F2
:10057C0000F0ECFC4FF4FA71022000F0E7FC0020D4
:10058C0000F034FD0346002B1DD0104B01221A60E5
:10059C00104B1B680E4A13600E4B9B680C4A536041
:1005AC000C4B9B684FF47A7202FB03F31946002044
:1005BC0000F0CCFC07E000BF06E000BF04E000BF89
:1005CC0002E000BF00E000BF00BF80BDB80000200B
:1005DC00600000204800002080B500AF2E4B0122A7
:1005EC001A6000F07BF92EE02C4B5A682B4B1B68E1
:1005FC009A4205DC294B9A68284B1B689A420ADD03
:10060C00264B03225A60254B5A68244B9B68134493
:10061C00224A136017E0214B5A68204B9B689A4280
:10062C000ADD1E4B03225A601C4B1A681B4B5B687D
:10063C00D31A1A4A936006E0184B1A68174B5B687A
:10064C00D31A164A9360154B1A68144B5968134BFE
:10065C009B680B449A42C7D1104B1B68104A13601D
:10066C000E4B5B680E4A53600C4B9B680C4A9360B4
:10067C000B4B1B680B4A1360094B9B68094A536070
:10068C00074B9B684FF47A7202FB03F31946002068
:10069C0000F05CFC00BF80BDB800002054000020BE
:1006AC00480000206000002080B500AF874B1B681D
:1006BC000F2B00F0BD800F2B00F3FE800D2B02D012
:1006CC000E2B5BD0F8E000F02BFC022000F08EFC2F
:1006DC000346002B08D009217D4801F06EF84FF439
:1006EC00FA71022000F032FC0120FFF74DFD0346A9
:1006FC00002B15D0754B0E221A6000F0EFF8754BDD
:10070C005B681946032000F0FFFA4FF4FA710120E0
:10071C0000F01CFC4FF4FA71022000F017FCCDE045
:10072C000220FFF731FD0346002B12D0694B1B68EA
:10073C000133684A1360674B1B68632B02DD654B02
:10074C0001221A60634B1B681946022000F0DCFA88
:10075C00B4E00320FFF718FD0346002B04D05D4BDB
:10076C001B685D4A1360A9E00120FFF727FD0346D3
:10077C00002B00F0A380FFF72FFF9FE000F0D0FBD1
:10078C00022000F033FC0346002B08D024215048F3
:10079C0001F013F84FF4FA71022000F0D7FB01209E
:1007AC00FFF7F2FC0346002B15D0484B0F221A60C2
:1007BC0000F094F8474B9B681946042000F0A4FA0B
:1007CC004FF4FA71012000F0C1FB4FF4FA710220D2
:1007DC0000F0BCFB74E00220FFF7D6FC0346002BB4
:1007EC0012D03C4B5B6801333A4A5360394B5B681F
:1007FC00632B02DD374B01225A60364B5B6819467E
:10080C00032000F081FA5BE00320FFF7BDFC0346F8
:10081C00002B04D02F4B5B682F4A536050E0012013
:10082C00FFF7CCFC0346002B4AD0FFF7D5FE47E080
:10083C0000F076FB022000F0D9FB0346002B08D019
:10084C001221234800F0B9FF4FF4FA71022000F096
:10085C007DFB0120FFF798FC0346002B05D10120FE
:10086C00FFF7ACFC0346002B02D0FFF7B5FE29E0E6
:10087C000220FFF789FC0346002B12D0154B9B6816
:10088C000133144A9360134B9B68632B02DD114BAD
:10089C0001229A600F4B9B681946042000F034FA31
:1008AC0010E00320FFF770FC0346002B0AD0094B25
:1008BC009B68094A936005E000BF04E000BF02E0BA
:1008CC0000BF00E000BF00BF80BD00BFB80000202B
:1008DC00000C0140540000204800002080B500AFFF
:1008EC0000223F21024800F050FF00BF80BD00BF36
:1008FC00000C014080B582B000AF78607B68012BA2
:10090C0003D07B68022B10D01FE00122012111487B
:10091C0000F03BFF002202210E4800F036FF0022BF
:10092C0004210C4800F031FF0FE001220821094896
:10093C0000F02BFF00221021064800F026FF0022B9
:10094C002021044800F021FF00BF00BF0837BD463E
:10095C0080BD00BF000C014080B582B000AF786054
:10096C007B68012B03D07B68022B10D01FE0002288
:10097C000121114800F009FF012202210E4800F06C
:10098C0004FF002204210C4800F0FFFE0FE00022BF
:10099C000821094800F0F9FE01221021064800F058
:1009AC00F4FE00222021044800F0EFFE00BF00BF3F
:1009BC000837BD4680BD00BF000C014080B582B039
:1009CC0000AF78607B68012B03D07B68022B10D0C2
:1009DC001FE000220121114800F0D7FE0022022165
:1009EC000E4800F0D2FE012204210C4800F0CDFE8E
:1009FC000FE000220821094800F0C7FE0022102158
:100A0C00064800F0C2FE01222021044800F0BDFE81
:100A1C0000BF00BF0837BD4680BD00BF000C0140C1
:100A2C0080B500AF174B1B68013B032B26D801A2E6
:100A3C0052F823F0510A00085F0A00086D0A0008FA
:100A4C007B0A00080120FFF755FF0220FFF784FF07
:100A5C0015E00120FFF74EFF0220FFF7AFFF0EE07D
:100A6C000120FFF779FF0220FFF744FF07E0012088
:100A7C00FFF7A4FF0220FFF73DFF00E000BF00BF1F
:100A8C0080BD00BFB800002080B500AF00F07CFB3B
:100A9C0000F030F800F06AF800F0B4F8134801F0F8
:100AAC00D1FA6421002000F051FA6421012000F0F9
:100ABC004DFA6421022000F049FA6421042000F070
:100ACC0045FAFFF74DFCFFF7EFFD042000F08EFA1E
:100ADC000346012BF5D14FF4FA71042000F036FADD
:100AEC004FF40071024800F068FEEAE7C0000020F5
:100AFC000008014080B590B000AF07F11803282220
:100B0C000021184601F04EFE3B1D00221A605A606F
:100B1C009A60DA601A610223BB610123BB62102365
:100B2C00FB6200237B6307F11803184600F05EFE9E
:100B3C000346002B01D000F0E1F80F237B6000236B
:100B4C00BB600023FB6000233B6100237B613B1DEA
:100B5C000021184601F0CAF80346002B01D000F022
:100B6C00CDF800BF4037BD4680BD000080B586B0D3
:100B7C0000AF07F1080300221A605A609A60DA602D
:100B8C003B4600221A605A601D4B4FF080421A609F
:100B9C001B4B41F63F725A60194B00229A60184B5E
:100BAC000922DA60164B00221A61154B00229A6159
:100BBC00134801F0F7F90346002B01D000F09EF822
:100BCC004FF48053BB6007F1080319460C4801F041
:100BDC0075FB0346002B01D000F090F800233B601E
:100BEC0000237B603B461946054801F04DFD03464A
:100BFC00002B01D000F082F800BF1837BD4680BD35
:100C0C00C000002080B588B000AF07F110030022AF
:100C1C001A605A609A60DA602E4B9B692D4A43F039
:100C2C00100393612B4B9B6903F01003FB60FB6873
:100C3C00284B9B69274A43F004039361254B9B691E
:100C4C0003F00403BB60BB68224B9B69214A43F051
:100C5C00080393611F4B9B6903F008037B607B685F
:100C6C00002243F6FC711C4800F08FFD00223F214E
:100C7C001A4800F08AFD4FF460433B6100237B610E
:100C8C000123BB6107F110031946154800F0ECFB7A
:100C9C0043F6FC733B6101237B610023BB610223A0
:100CAC00FB6107F1100319460B4800F0DDFB3F23F5
:100CBC003B6101237B610023BB610223FB6107F1D4
:100CCC0010031946054800F0CFFB00BF2037BD4686
:100CDC0080BD00BF0010024000080140000C014024
:100CEC000010014080B582B000AF786000F04EF982
:100CFC00FFF78EFA00BF0837BD4680BD80B400AF49
:100D0C0072B600BFFEE7000080B483B000AF78601D
:100D1C0039607B68184A82FB03129210DB17D31AD6
:100D2C00164A13607968144B83FB01239A10CB1776
:100D3C00D21A13469B0013445B00CA1A0F4B5A601D
:100D4C003B680D4A82FB03129210DB17D31A0B4A35
:100D5C0093603968084B83FB01239A10CB17D21A86
:100D6C0013469B0013445B00CA1A044BDA6000BFA5
:100D7C000C37BD4680BC704767666666680000200D
:100D8C0080B582B000AF0346FB71FB792E4AD35C71
:100D9C0003F00103DBB21A4604212C4800F0F5FCE9
:100DAC00FB79294AD35C5B10DBB203F00103DBB2A5
:100DBC001A460821254800F0E8FCFB79224AD35C4E
:100DCC009B10DBB203F00103DBB21A4610211F4863
:100DDC0000F0DBFCFB791C4AD35CDB10DBB203F0CC
:100DEC000103DBB21A462021184800F0CEFCFB7937
:100DFC00154AD35C1B11DBB203F00103DBB21A46BC
:100E0C004021124800F0C1FCFB790F4AD35C5B1106
:100E1C00DBB203F00103DBB21A4680210B4800F071
:100E2C00B4FCFB79084AD35C9B11DBB203F00103E1
:100E3C00DBB21A464FF48071044800F0A6FC00BFE8
:100E4C000837BD4680BD00BFDC2700080008014004
:100E5C0080B582B000AF786001224FF470512C48FD
:100E6C0000F093FC7B68032B3ED801A252F823F0D0
:100E7C008D0E0008A70E0008C10E0008DB0E00083E
:100E8C0000224FF48061224800F07FFC214B1B684C
:100E9C00DBB21846FFF774FF27E000224FF4006125
:100EAC001B4800F072FC1B4B5B68DBB21846FFF76B
:100EBC0067FF1AE000224FF48051154800F065FCE2
:100ECC00144B9B68DBB21846FFF75AFF0DE000226B
:100EDC004FF400510E4800F058FC0E4BDB68DBB2AF
:100EEC001846FFF74DFF00E000BF0B4B1B7801339A
:100EFC00DAB2094B1A70084B1A78084B1B789A42D5
:100F0C0002D3054B00221A7000BF0837BD4680BDC6
:100F1C000008014068000020BC000020D827000811
:100F2C0080B500AF012000F061F80346002B08D01B
:100F3C00054B1B781846FFF78BFFFA21012000F0B8
:100F4C0005F800BF80BD00BFBC00002080B483B09A
:100F5C0000AF786039603B68094A82FB031292103B
:100F6C00DB17D21A07497B6841F82320064A7B68B5
:100F7C00002142F8231000BF0C37BD4680BC7047DF
:100F8C0067666666300100200801002080B483B0DB
:100F9C0000AF00237B601CE0124A7B6852F82330C0
:100FAC00002B08DB0F4A7B6852F823305A1E0D4980
:100FBC007B6841F823200B4A7B6852F82330002BC6
:100FCC0004DC094A7B68012142F823107B68013359
:100FDC007B607B68092BDFDD00BF00BF0C37BD4693
:100FEC0080BC7047300100200801002080B483B021
:100FFC0000AF7860094A7B6852F82330012B06D188
:10100C00064A7B68002142F82310012300E00023EC
:10101C0018460C37BD4680BC704700BF0801002045
:10102C0080B485B000AF154B9B69144A43F00103A3
:10103C009361124B9B6903F00103BB60BB680F4BC0
:10104C00DB690E4A43F08053D3610C4BDB6903F030
:10105C0080537B607B680A4B5B68FB60FB6823F00A
:10106C00E063FB60FB6843F08063FB60044AFB6851
:10107C00536000BF1437BD4680BC7047001002405F
:10108C000000014080B584B000AF78607B681B68BD
:10109C00B3F1804F13D10C4BDB690B4A43F00103C6
:1010AC00D361094BDB6903F00103FB60FB68002291
:1010BC0000211C2000F0A1F91C2000F0BAF900BF9F
:1010CC001037BD4680BD00BF0010024080B400AF99
:1010DC00FEE780B400AFFEE780B400AFFEE780B45B
:1010EC0000AFFEE780B400AFFEE780B400AF00BFF6
:1010FC00BD4680BC704780B400AF00BFBD4680BC0D
:10110C00704780B400AF00BFBD4680BC704780B54F
:10111C0000AF00F07FF800BF80BD000080B500AFCD
:10112C00024800F0DBFF00BF80BD00BFC000002004
:10113C0080B400AF00BFBD4680BC7047FFF7F8FF1E
:10114C000B480C490C4A002302E0D458C450043319
:10115C00C4188C42F9D3094A094C002301E01360EE
:10116C000432A242FBD301F0F9FAFFF78DFC704771
:10117C0000000020840000201428000884000020B7
:10118C005C010020FEE7000080B500AF084B1B6837
:10119C00074A43F010031360032000F023F90F20DB
:1011AC0000F008F8FFF73CFF0023184680BD00BF95
:1011BC000020024080B582B000AF7860124B1A68F4
:1011CC00124B1B7819464FF47A73B3FBF1F3B2FB55
:1011DC00F3F3184600F03BF90346002B01D0012332
:1011EC000EE07B680F2B0AD8002279684FF0FF3095
:1011FC0000F003F9064A7B681360002300E001232A
:10120C0018460837BD4680BD7800002080000020BD
:10121C007C00002080B400AF054B1B781A46054BB0
:10122C001B681344034A136000BFBD4680BC704763
:10123C00800000205801002080B400AF024B1B68D6
:10124C001846BD4680BC70475801002080B485B05C
:10125C0000AF78607B6803F00703FB600C4BDB6826
:10126C00BB60BA684FF6FF031340BB60FB681A0201
:10127C00BB68134343F0BF6343F40033BB60044AC1
:10128C00BB68D36000BF1437BD4680BC704700BF3D
:10129C0000ED00E080B400AF044BDB681B0A03F0E8
:1012AC0007031846BD4680BC704700BF00ED00E048
:1012BC0080B483B000AF0346FB7197F90730002B65
:1012CC000BDBFB7903F01F02064997F907305B092A
:1012DC00012000FA02F241F8232000BF0C37BD4672
:1012EC0080BC704700E100E080B483B000AF0346DF
:1012FC003960FB7197F90730002B0ADB3B68DAB2D7
:10130C000C4997F907301201D2B20B4483F8002331
:10131C000AE03B68DAB20849FB7903F00F03043B9F
:10132C001201D2B20B441A7600BF0C37BD4680BCFA
:10133C00704700BF00E100E000ED00E080B489B030
:10134C0000AFF860B9607A60FB6803F00703FB61DB
:10135C00FB69C3F10703042B28BF0423BB61FB69A2
:10136C000433062B02D9FB69033B00E000237B61AD
:10137C004FF0FF32BB6902FA03F3DA43BB681A4041
:10138C007B699A404FF0FF317B6901FA03F3D94333
:10139C007B680B40134318462437BD4680BC70470E
:1013AC0080B582B000AF78607B68013BB3F1807F81
:1013BC0001D301230FE00A4A7B68013B53600F21E4
:1013CC004FF0FF30FFF790FF054B00229A60044B63
:1013DC0007221A60002318460837BD4680BD00BF9F
:1013EC0010E000E080B582B000AF78607868FFF75D
:1013FC002DFF00BF0837BD4680BD80B586B000AF5D
:10140C000346B9607A60FB7300237B61FFF742FFF0
:10141C0078617A68B9687869FFF790FF024697F9A6
:10142C000F3011461846FFF75FFF00BF1837BD4657
:10143C0080BD80B582B000AF0346FB7197F90730D1
:10144C001846FFF735FF00BF0837BD4680BD80B595
:10145C0082B000AF78607868FFF7A2FF03461846A9
:10146C000837BD4680BD000080B48BB000AF7860FB
:10147C00396000237B6200233B6248E101227B6AD6
:10148C0002FA03F3FB613B681B68FA691340BB610A
:10149C00BA69FB699A4240F037813B685B68A34AA2
:1014AC0093425ED0A14A934275D8A14A934258D038
:1014BC009F4A93426FD89F4A934252D09D4A93427F
:1014CC0069D89D4A93424CD09B4A934263D89B4A1D
:1014DC00934246D0994A93425DD8122B2AD8122BAC
:1014EC0059D801A252F823F06F15000849150008CD
:1014FC005B1500089D150008A3150008A31500082E
:10150C00A3150008A3150008A3150008A3150008CF
:10151C00A3150008A3150008A3150008A3150008BF
:10152C00A3150008A3150008A31500085115000801
:10153C0065150008824A934213D02CE03B68DB68A7
:10154C003B6229E03B68DB6804333B6224E03B6888
:10155C00DB6808333B621FE03B68DB680C333B62A3
:10156C001AE03B689B68002B02D104233B6213E01A
:10157C003B689B68012B05D108233B627B68FA69A9
:10158C001A6109E008233B627B68FA695A6103E03F
:10159C0000233B6200E000BFBB69FF2B01D87B68D6
:1015AC0001E07B6804337B61BB69FF2B02D87B6A4B
:1015BC009B0002E07B6A083B9B003B617B691A68DD
:1015CC000F213B6901FA03F3DB431A40396A3B698B
:1015DC0001FA03F31A437B691A603B685B6803F0FA
:1015EC008053002B00F09080564B9B69554A43F07A
:1015FC0001039361534B9B6903F00103BB60BB6810
:10160C00514A7B6A9B08023352F82330FB607B6A99
:10161C0003F003039B000F2202FA03F3DB43FA6887
:10162C001340FB607B68494A93420DD07B68484A63
:10163C00934207D07B68474A934201D1022304E0CE
:10164C00032302E0012300E000237A6A02F0030284
:10165C0092009340FA681343FB603B497B6A9B08FA
:10166C000233FA6841F823203B685B6803F480136B
:10167C00002B06D0384B9A683749BB6913438B60F3
:10168C0006E0354B9A68BB69DB43334913408B60EA
:10169C003B685B6803F40013002B06D02E4BDA6812
:1016AC002D49BB691343CB6006E02B4BDA68BB6951
:1016BC00DB4329491340CB603B685B6803F4003380
:1016CC00002B06D0244B5A682349BB6913434B604B
:1016DC0006E0214B5A68BB69DB431F4913404B6042
:1016EC003B685B6803F48033002B06D01A4B1A68F6
:1016FC001949BB6913430B6006E0174B1A68BB69A9
:10170C00DB43154913400B607B6A01337B623B68FA
:10171C001A687B6A22FA03F3002B7FF4AFAE00BF8A
:10172C0000BF2C37BD4680BC704700BF0000321094
:10173C0000003110000022100000211000001210D7
:10174C000000111000100240000001400008014090
:10175C00000C0140001001400004014080B485B031
:10176C0000AF78600B467B807B689A687B8813405F
:10177C00002B02D00123FB7301E00023FB73FB7BE6
:10178C0018461437BD4680BC704780B483B000AF98
:10179C0078600B467B8013467B707B78002B03D0E4
:1017AC007A887B681A6103E07B881A047B681A616B
:1017BC0000BF0C37BD4680BC704780B485B000AF0D
:1017CC0078600B467B807B68DB68FB607A88FB6803
:1017DC0013401A04FB68D9437B880B401A437B687F
:1017EC001A6100BF1437BD4680BC704780B586B007
:1017FC0000AF78607B68002B01D101236CE27B6821
:10180C001B6803F00103002B00F08780924B5B6890
:10181C0003F00C03042B0CD08F4B5B6803F00C0310
:10182C00082B12D18C4B5B6803F48033B3F5803FEB
:10183C000BD1894B1B6803F40033002B6CD07B68F5
:10184C005B68002B68D1012346E27B685B68B3F5CB
:10185C00803F06D1804B1B687F4A43F48033136072
:10186C002EE07B685B68002B0CD17B4B1B687A4AA3
:10187C0023F480331360784B1B68774A23F480235E
:10188C0013601DE07B685B68B3F5A02F0CD1724B25
:10189C001B68714A43F4802313606F4B1B686E4ABC
:1018AC0043F4803313600BE06B4B1B686A4A23F4E0
:1018BC0080331360684B1B68674A23F480231360E2
:1018CC007B685B68002B13D0FFF7B6FC386108E02F
:1018DC00FFF7B2FC02463B69D31A642B01D90323F0
:1018EC00FAE15D4B1B6803F40033002BF0D014E0DD
:1018FC00FFF7A2FC386108E0FFF79EFC02463B694B
:10190C00D31A642B01D90323E6E1534B1B6803F470
:10191C000033002BF0D100E000BF7B681B6803F0A4
:10192C000203002B63D04C4B5B6803F00C03002BC1
:10193C000BD0494B5B6803F00C03082B1CD1464BB6
:10194C005B6803F48033002B16D1434B1B6803F008
:10195C000203002B05D07B681B69012B01D00123EE
:10196C00BAE13D4B1B6823F0F8027B685B69DB0036
:10197C00394913430B603AE07B681B69002B20D07C
:10198C00364B01221A60FFF757FC386108E0FFF76D
:10199C0053FC02463B69D31A022B01D903239BE16A
:1019AC002D4B1B6803F00203002BF0D02A4B1B6855
:1019BC0023F0F8027B685B69DB00274913430B605B
:1019CC0015E0264B00221A60FFF736FC386108E060
:1019DC00FFF732FC02463B69D31A022B01D90323D1
:1019EC007AE11D4B1B6803F00203002BF0D17B68DE
:1019FC001B6803F00803002B3AD07B689B69002B13
:101A0C0019D0174B01221A60FFF716FC386108E059
:101A1C00FFF712FC02463B69D31A022B01D90323B0
:101A2C005AE10D4B5B6A03F00203002BF0D001204E
:101A3C0000F09AFA1CE00A4B00221A60FFF7FCFB3C
:101A4C0038610FE0FFF7F8FB02463B69D31A022B13
:101A5C0008D9032340E100BF0010024000004242BD
:101A6C00800442429E4B5B6A03F00203002BE9D1D7
:101A7C007B681B6803F00403002B00F0A680002396
:101A8C00FB75974BDB6903F08053002B0DD1944B06
:101A9C00DB69934A43F08053D361914BDB6903F0CC
:101AAC008053BB60BB680123FB758E4B1B6803F432
:101ABC008073002B18D18B4B1B688A4A43F48073BC
:101ACC001360FFF7B9FB386108E0FFF7B5FB02467E
:101ADC003B69D31A642B01D90323FDE0814B1B68AE
:101AEC0003F48073002BF0D07B68DB68012B06D1EC
:101AFC007B4B1B6A7A4A43F0010313622DE07B682F
:101B0C00DB68002B0CD1764B1B6A754A23F0010362
:101B1C001362734B1B6A724A23F0040313621CE0BA
:101B2C007B68DB68052B0CD16D4B1B6A6C4A43F050
:101B3C00040313626A4B1B6A694A43F00103136284
:101B4C000BE0674B1B6A664A23F001031362644B7C
:101B5C001B6A634A23F0040313627B68DB68002B67
:101B6C0015D0FFF769FB38610AE0FFF765FB024609
:101B7C003B69D31A41F28832934201D90323ABE07B
:101B8C00574B1B6A03F00203002BEED014E0FFF757
:101B9C0053FB38610AE0FFF74FFB02463B69D31A4F
:101BAC0041F28832934201D9032395E04C4B1B6AD6
:101BBC0003F00203002BEED1FB7D012B05D1484B2A
:101BCC00DB69474A23F08053D3617B68DB69002BC8
:101BDC0000F08180424B5B6803F00C03082B61D052
:101BEC007B68DB69022B46D13F4B00221A60FFF762
:101BFC0023FB386108E0FFF71FFB02463B69D31A51
:101C0C00022B01D9032367E0354B1B6803F00073EB
:101C1C00002BF0D17B681B6AB3F5803F08D1304BA9
:101C2C005B6823F400327B689B682D4913434B603F
:101C3C002B4B5B6823F474127B68196A7B685B6AB4
:101C4C000B43274913434B60274B01221A60FFF7C4
:101C5C00F3FA386108E0FFF7EFFA02463B69D31A52
:101C6C00022B01D9032337E01D4B1B6803F00073D3
:101C7C00002BF0D02FE01C4B00221A60FFF7DCFA8F
:101C8C00386108E0FFF7D8FA02463B69D31A022BF9
:101C9C0001D9032320E0124B1B6803F00073002BC7
:101CAC00F0D118E07B68DB69012B01D1012313E033
:101CBC000B4B5B68FB60FB6803F480327B681B6A30
:101CCC009A4206D1FB6803F470127B685B6A9A42F5
:101CDC0001D0012300E0002318461837BD4680BD13
:101CEC0000100240007000406000424280B584B099
:101CFC0000AF786039607B68002B01D10123D0E004
:101D0C006A4B1B6803F007033A689A4210D9674B79
:101D1C001B6823F0070265493B6813430B60634B58
:101D2C001B6803F007033A689A4201D00123B8E01C
:101D3C007B681B6803F00203002B20D07B681B68B8
:101D4C0003F00403002B05D0594B5B68584A43F44D
:101D5C00E06353607B681B6803F00803002B05D01D
:101D6C00534B5B68524A43F460535360504B5B686F
:101D7C0023F0F0027B689B684D4913434B607B68F2
:101D8C001B6803F00103002B40D07B685B68012BC0
:101D9C0007D1474B1B6803F40033002B15D10123EB
:101DAC007FE07B685B68022B07D1414B1B6803F01B
:101DBC000073002B09D1012373E03D4B1B6803F02A
:101DCC000203002B01D101236BE0394B5B6823F03C
:101DDC0003027B685B68364913434B60FFF72CFAB0
:101DEC00F8600AE0FFF728FA0246FB68D31A41F2C2
:101DFC008832934201D9032353E02D4B5B6803F0E7
:101E0C000C027B685B689B009A42EBD1274B1B68EA
:101E1C0003F007033A689A4210D2244B1B6823F054
:101E2C00070222493B6813430B60204B1B6803F0ED
:101E3C0007033A689A4201D0012332E07B681B68A1
:101E4C0003F00403002B08D0194B5B6823F4E06209
:101E5C007B68DB68164913434B607B681B6803F097
:101E6C000803002B09D0124B5B6823F460527B688B
:101E7C001B69DB000E4913434B6000F021F802464E
:101E8C000B4B5B681B0903F00F030A49CB5C22FA6E
:101E9C0003F3094A1360094B1B681846FFF78AF9CC
:101EAC00002318461037BD4680BD00BF00200240FD
:101EBC0000100240E8270008780000207C00002079
:101ECC0080B487B000AF0023FB600023BB6000230D
:101EDC007B6100237B6000233B611E4B5B68FB60D6
:101EEC00FB6803F00C03042B02D0082B03D027E073
:101EFC00194B3B6127E0FB689B0C03F00F03174A5F
:101F0C00D35C7B60FB6803F48033002B10D0114B47
:101F1C005B685B0C03F00103114AD35CBB607B680C
:101F2C000D4A02FB03F2BB68B2FBF3F37B6104E0E6
:101F3C007B680C4A02FB03F37B617B693B6102E02B
:101F4C00054B3B6100BF3B6918461C37BD4680BC46
:101F5C00704700BF0010024000127A00F8270008FA
:101F6C000828000800093D0080B485B000AF7860F7
:101F7C000A4B1B680A4AA2FB03235B0A7A6802FB22
:101F8C0003F3FB6000BFFB685A1EFA60002BF9D10B
:101F9C0000BF00BF1437BD4680BC704778000020DE
:101FAC00D34D621080B582B000AF78607B68002B97
:101FBC0001D1012341E07B6893F83D30DBB2002B6B
:101FCC0006D17B68002283F83C207868FFF75AF82A
:101FDC007B68022283F83D207B681A687B68043397
:101FEC001946104600F056FA7B68012283F8462009
:101FFC007B68012283F83E207B68012283F83F2016
:10200C007B68012283F840207B68012283F8412001
:10201C007B68012283F842207B68012283F84320ED
:10202C007B68012283F844207B68012283F84520D9
:10203C007B68012283F83D20002318460837BD46F3
:10204C0080BD000080B485B000AF78607B6893F8E9
:10205C003D30DBB2012B01D0012335E07B6802223D
:10206C0083F83D207B681B68DA687B681B6842F04C
:10207C000102DA607B681B68164A934209D07B68C0
:10208C001B68B3F1804F04D07B681B68124A9342E3
:10209C0011D17B681B689B6803F00703FB60FB682E
:1020AC00062B10D07B681B681A687B681B6842F093
:1020BC0001021A6007E07B681B681A687B681B6862
:1020CC0042F001021A60002318461437BD4680BC4A
:1020DC00704700BF002C01400004004080B584B064
:1020EC0000AF78607B681B68DB68FB607B681B68F3
:1020FC001B69BB60BB6803F00203002B20D0FB689C
:10210C0003F00203002B1BD07B681B686FF00202EC
:10211C001A617B6801221A777B681B689B6903F044
:10212C000303002B03D0786800F098F905E0786879
:10213C0000F08BF9786800F09AF97B6800221A7726
:10214C00BB6803F00403002B20D0FB6803F00403EE
:10215C00002B1BD07B681B686FF004021A617B6834
:10216C0002221A777B681B689B6903F44073002B6F
:10217C0003D0786800F072F905E0786800F065F932
:10218C00786800F074F97B6800221A77BB6803F05A
:10219C000803002B20D0FB6803F00803002B1BD096
:1021AC007B681B686FF008021A617B6804221A773F
:1021BC007B681B68DB6903F00303002B03D0786892
:1021CC0000F04CF905E0786800F03FF9786800F011
:1021DC004EF97B6800221A77BB6803F01003002BC2
:1021EC0020D0FB6803F01003002B1BD07B681B680E
:1021FC006FF010021A617B6808221A777B681B68E3
:10220C00DB6903F44073002B03D0786800F026F9E7
:10221C0005E0786800F019F9786800F028F97B6817
:10222C0000221A77BB6803F00103002B0CD0FB686B
:10223C0003F00103002B07D07B681B686FF00102D1
:10224C001A617868FEF74EFDBB6803F08003002B23
:10225C000CD0FB6803F08003002B07D07B681B6855
:10226C006FF080021A61786800F06FFABB6803F0B7
:10227C004003002B0CD0FB6803F04003002B07D06D
:10228C007B681B686FF040021A61786800F0F8F800
:10229C00BB6803F02003002B0CD0FB6803F0200379
:1022AC00002B07D07B681B686FF020021A617868DE
:1022BC0000F042FA00BF1037BD4680BD80B584B037
:1022CC0000AF786039600023FB737B6893F83C3077
:1022DC00012B01D10223B4E07B68012283F83C205E
:1022EC007B68022283F83D207B681B689B68BB607F
:1022FC00BB6823F07703BB60BB6823F47F43BB60F0
:10230C007B681B68BA689A603B681B68B3F5005F12
:10231C003ED0B3F5005F00F28780B3F5805F00F02C
:10232C008680B3F5805F7FD8702B1AD0702B7BD84A
:10233C00602B50D0602B77D8502B3CD0502B73D8BF
:10234C00402B58D0402B6FD8302B64D0302B6BD80F
:10235C00202B60D0202B67D8002B5CD0102B5AD0B0
:10236C0062E07B6818683B6899683B685A683B6810
:10237C00DB6800F06AF97B681B689B68BB60BB6814
:10238C0043F07703BB607B681B68BA689A604FE0C8
:10239C007B6818683B6899683B685A683B68DB68DF
:1023AC0000F053F97B681B689A687B681B6842F4E1
:1023BC0080429A603CE07B6818683B6859683B68CF
:1023CC00DB681A4600F0CAF87B681B685021184677
:1023DC0000F021F92CE07B6818683B6859683B6871
:1023EC00DB681A4600F0E8F87B681B686021184629
:1023FC0000F011F91CE07B6818683B6859683B6871
:10240C00DB681A4600F0AAF87B681B684021184666
:10241C0000F001F90CE07B681A683B681B681946F0
:10242C00104600F0F8F803E00123FB7300E000BF56
:10243C007B68012283F83D207B68002283F83C20D6
:10244C00FB7B18461037BD4680BD80B483B000AF0F
:10245C00786000BF0C37BD4680BC704780B483B039
:10246C0000AF786000BF0C37BD4680BC704780B4AD
:10247C0083B000AF786000BF0C37BD4680BC70479E
:10248C0080B483B000AF786000BF0C37BD4680BC11
:10249C007047000080B485B000AF786039607B680D
:1024AC001B68FB607B682B4A934207D07B68B3F1B7
:1024BC00804F03D07B68284A934208D1FB6823F0F5
:1024CC007003FB603B685B68FA681343FB607B68D6
:1024DC00204A934207D07B68B3F1804F03D07B68CE
:1024EC001D4A934208D1FB6823F44073FB603B68A0
:1024FC00DB68FA681343FB60FB6823F080023B68DF
:10250C005B691343FB607B68FA681A603B689A68E6
:10251C007B68DA623B681A687B689A627B680D4A52
:10252C00934203D13B681A697B681A637B6801226A
:10253C005A617B681B6903F00103002B05D07B6893
:10254C001B6923F001027B681A6100BF1437BD467A
:10255C0080BC7047002C01400004004080B487B060
:10256C0000AFF860B9607A60FB681B6A7B61FB683E
:10257C001B6A23F00102FB681A62FB689B693B61D2
:10258C003B6923F0F0033B617B681B013A69134301
:10259C003B617B6923F00A037B617A69BB68134357
:1025AC007B61FB683A699A61FB687A691A6200BFC1
:1025BC001C37BD4680BC704780B487B000AFF86054
:1025CC00B9607A60FB681B6A7B61FB681B6A23F04D
:1025DC001002FB681A62FB689B693B613B6923F440
:1025EC0070433B617B681B033A6913433B617B6916
:1025FC0023F0A0037B61BB681B017A6913437B61E9
:10260C00FB683A699A61FB687A691A6200BF1C37E9
:10261C00BD4680BC704780B485B000AF786039602F
:10262C007B689B68FB60FB6823F07003FB603A6877
:10263C00FB68134343F00703FB607B68FA689A60FE
:10264C0000BF1437BD4680BC704780B487B000AF64
:10265C00F860B9607A603B60FB689B687B617B6962
:10266C0023F47F437B613B681A027B681A43BB6887
:10267C0013437A6913437B61FB687A699A6000BFE4
:10268C001C37BD4680BC704780B485B000AF786005
:10269C0039607B6893F83C30012B01D1022341E077
:1026AC007B68012283F83C207B68022283F83D2062
:1026BC007B681B685B68FB607B681B689B68BB6006
:1026CC00FB6823F07003FB603B681B68FA681343DC
:1026DC00FB607B681B68FA685A607B681B68144A4D
:1026EC00934209D07B681B68B3F1804F04D07B68A0
:1026FC001B68104A93420CD1BB6823F08003BB606B
:10270C003B685B68BA681343BB607B681B68BA683C
:10271C009A607B68012283F83D207B68002283F855
:10272C003C20002318461437BD4680BC704700BFC0
:10273C00002C01400004004080B483B000AF7860EE
:10274C0000BF0C37BD4680BC704780B483B000AF6F
:10275C00786000BF0C37BD4680BC704770B5002652
:10276C000C4D0D4C641BA410A64209D100F022F8AC
:10277C0000260A4D0A4C641BA410A64205D170BD5C
:10278C0055F8043B98470136EEE755F8043B98475B
:10279C000136F2E70C2800080C2800080C28000869
:1027AC001028000803460244934200D1704703F8F6
:1027BC00011BF9E7F8B500BFF8BC08BC9E46704792
:0C27CC00F8B500BFF8BC08BC9E46704782
:1027D800040000004079243019120278001000002B
:1027E80000000000000000000102030406070809B9
:1027F80002030405060708090A0B0C0D0E0F10103A
:0428080001020000C9
:04280C00310100088E
:042810000D010008AE
:1028140001000000000000000000000001000000B2
:1028240000000000000000000100000000000000A3
:102834000000000001000000000000000000000093
:10284400010000000000000000000000F40100008E
:10285400000000000000000005000000020000006D
:102864000300000005000000020000000300000057
:102874000500000003000000030000000200000047
:10288400050000000500000000127A00100000009E
:04289400010000003F
:040000050800114995
:00000001FF
