:020000040800F2
:100000000028002079130008091300080F130008C6
:10001000151300081B13000821130008000000003E
:10002000000000000000000000000000271300088E
:1000300033130008000000003F1300084B130008B2
:10004000C1130008C1130008C1130008C113000840
:10005000C1130008C1130008C1130008C113000830
:10006000C1130008C1130008C1130008C113000820
:10007000C1130008C1130008C1130008C113000810
:10008000C1130008C1130008C1130008C113000800
:10009000C1130008C1130008C1130008C1130008F0
:1000A000C1130008C1130008C1130008C1130008E0
:1000B00059130008C113000800000000C113000814
:1000C000C11300080000000000000000C113000878
:1000D00000000000C1130008C11300080000000068
:1000E000C1130008C1130008C1130008000000007C
:1000F0000000000000000000000000000000000000
:0C01000000000000000000005FF808F1A3
:10010C0010B5054C237833B9044B13B10448AFF345
:10011C0000800123237010BDA0000020000000000F
:10012C00F029000808B5034B1BB103490348AFF392
:10013C00008008BD00000000A4000020F029000889
:10014C0080B500AF4FF400510D4801F01FFC034681
:10015C001A460C4B5A604FF48041094801F016FCCA
:10016C0003461A46074B9A604FF40041044801F0CD
:10017C000DFC03461A46034BDA6000BF80BD00BF7E
:10018C00001001404000002080B483B000AF7860C4
:10019C00094A7B6852F82330012B06D1064A7B684A
:1001AC00002142F82310012300E0002318460C37ED
:1001BC00BD4680BC704700BFBC00002080B483B03B
:1001CC0000AF7860044A7B68012142F8231000BF1D
:1001DC000C37BD4680BC7047BC00002080B582B097
:1001EC0000AFFFF7ADFF00237B606EE03B4A7B68FE
:1001FC0052F823203A497B6841F82320394A7B681E
:10020C0052F8232035497B6841F82320364A7B6815
:10021C0052F8232033497B6841F823202F4A7B680E
:10022C0052F823202F497B6851F823309A4249D148
:10023C002A4A7B6852F8232029497B6851F82330DD
:10024C009A423FD1264A7B6852F8232027497B6883
:10025C0051F823309A4217D0214A7B6852F8232058
:10026C0022497B6841F82320204A7B6852F82330CE
:10027C00002B27D11E4A7B684FF4FA7142F82310E9
:10028C007868FFF79BFF1DE0194A7B6852F8233012
:10029C005A1E17497B6841F82320154A7B6852F88F
:1002AC002330002B0ED1124A7B684FF4FA7142F8BE
:1002BC0023100E4A7B6852F82330002B02D1786849
:1002CC00FFF77CFF7B6801337B607B68032B8DDD44
:1002DC0000BF00BF0837BD4680BD00BF1000002026
:1002EC0020000020000000204000002030000020F2
:1002FC005000002080B400AF064B1B68013B054A40
:10030C001360044B5B68013B024A536000BFBD465F
:10031C0080BC70477C00002080B500AF894B1B6807
:10032C00042B00F2038101A252F823F04D030008C4
:10033C0055030008CB03000849040008BD0400085D
:10034C00804B01221A60FAE000F004FB7E4B5B68E4
:10035C007D4A12681146184600F06EFCFFF7CAFF82
:10036C000120FFF711FF0346002B1BD0754B0D220C
:10037C001A6000F04DFA754B1B681946022000F00C
:10038C005BFC02234FF4FA720021714800F08CFDE3
:10039C0006234FF4FA7200216E4800F085FD01200F
:1003AC0000F0DAFE684B5B68002B40F0C180654BB7
:1003BC0002221A60654B5B68634A5360B8E000F038
:1003CC00C9FA614B5B68604A12681146184600F026
:1003DC0033FCFFF78FFF0120FFF7D6FE0346002BFF
:1003EC001BD0584B0D221A6000F012FA574B1B68A9
:1003FC001946022000F020FC02234FF4FA7200216F
:10040C00534800F051FD06234FF4FA720021514875
:10041C0000F04AFD012000F09FFE4B4B1B68002BA7
:10042C0040F08880474B03221A60484B9B68464A31
:10043C001360464B1B68444A53607BE000F08AFA19
:10044C00414B5B68404A12681146184600F0F4FBB9
:10045C00FFF750FF0120FFF797FE0346002B1BD040
:10046C00384B0D221A6000F0D3F9384B1B68194633
:10047C00022000F0E1FB02234FF4FA720021344811
:10048C0000F012FD06234FF4FA720021314800F0FF
:10049C000BFD012000F060FE2B4B1B68002B4BD199
:1004AC00284B04221A60294B5B68274A136043E0EF
:1004BC0000F050FA244B5B68234A12681146184628
:1004CC0000F0BAFBFFF716FF0120FFF75DFE0346B5
:1004DC00002B1BD01B4B0D221A6000F099F91B4B03
:1004EC001B681946022000F0A7FB02234FF4FA7296
:1004FC000021174800F0D8FC06234FF4FA720021B3
:10050C00144800F0D1FC012000F026FE0E4B1B68B5
:10051C00002B13D10B4B01221A600C4B1B680A4A9F
:10052C0013600A4B9B68084A536007E000BF06E063
:10053C0000BF04E000BF02E000BF00E000BF00BF4E
:10054C0080BD00BF600000207C0000206400002003
:10055C00890600084106000880B500AF304B012227
:10056C001A6000F055F92EE02E4B5A682D4B1B6883
:10057C009A4205DC2B4B9A682A4B1B689A420ADD7F
:10058C00284B03225A60274B5A68264B9B6813440E
:10059C00244A136017E0234B5A68224B9B689A42FB
:1005AC000ADD204B03225A601E4B1A681D4B5B68F8
:1005BC00D31A1C4A936006E01A4B1A68194B5B68F5
:1005CC00D31A184A9360174B1A68164B5968154B77
:1005DC009B680B449A42C7D1124B1B68124A13609A
:1005EC00104B5B68104A53600E4B9B680E4A93602D
:1005FC000D4B1B680D4A13600B4B9B680B4A5360E9
:10060C00022000F0A9FD062000F0A6FD01234FF406
:10061C007A720021064800F047FC00BF80BD00BF85
:10062C006000002070000020640000207C0000208E
:10063C002503000880B500AF0E4B1B680F2B10D0A4
:10064C000F2B13DC0D2B02D00E2B05D00EE0092145
:10065C00094801F0CAF90AE02421074801F0C5F95C
:10066C0005E01221044801F0C0F900E000BF00BF12
:10067C0080BD00BF60000020000C014080B500AFC1
:10068C005A4B1B680F2B7BD00F2B00F3A6800D2B26
:10069C0002D00E2B3AD0A0E00120FFF775FD0346E7
:1006AC00002B0FD0514B0E221A6000F0B1F8504BBA
:1006BC005B681946032000F0BFFA4D4B1B684D4A8E
:1006CC0013608CE00220FFF75FFD0346002B12D075
:1006DC00474B1B680133464A1360454B1B68632B21
:1006EC0002DD434B01221A60414B1B681946022064
:1006FC0000F0A2FA73E00320FFF746FD0346002B3F
:10070C006DD03B4B1B683B4A136068E00120FFF740
:10071C003BFD0346002B0FD0344B0F221A6000F028
:10072C0077F8334B9B681946042000F085FA304B60
:10073C005B68304A536054E00220FFF725FD034606
:10074C00002B12D02A4B5B680133294A5360284B8B
:10075C005B68632B02DD264B01225A60244B5B68DD
:10076C001946032000F068FA3BE00320FFF70CFD6C
:10077C000346002B35D01E4B5B681E4A536030E09D
:10078C000120FFF701FD0346002B02D0FFF7E4FE2A
:10079C0029E00220FFF7F8FC0346002B12D0144B83
:1007AC009B680133124A9360114B9B68632B02DDEB
:1007BC000F4B01229A600E4B9B681946042000F0E7
:1007CC003BFA10E00320FFF7DFFC0346002B0AD0B6
:1007DC00074B9B68074A936005E000BF04E000BF2D
:1007EC0002E000BF00E000BF00BF80BD6000002041
:1007FC00700000206400002080B500AF4FF4007141
:10080C00024801F0F2F800BF80BD00BF00080140B3
:10081C0080B500AF00223F21024801F0CEF800BFA6
:10082C0080BD00BF000C014080B582B000AF786085
:10083C007B68012B03D07B68022B10D01FE00122B8
:10084C000121114801F0B9F8002202210E4801F0F3
:10085C00B4F8002204210C4801F0AFF80FE001229B
:10086C000821094801F0A9F800221021064801F0DE
:10087C00A4F800222021044801F09FF800BF00BF1B
:10088C000837BD4680BD00BF000C014080B582B06A
:10089C0000AF78607B68012B03D07B68022B10D0F3
:1008AC001FE000220121114801F087F801220221EA
:1008BC000E4801F082F8002204210C4801F07DF86A
:1008CC000FE000220821094801F077F801221021DD
:1008DC00064801F072F800222021044801F06DF85E
:1008EC0000BF00BF0837BD4680BD00BF000C0140F3
:1008FC0080B582B000AF78607B68012B03D07B6839
:10090C00022B10D01FE000220121114801F055F8F4
:10091C00002202210E4801F050F8012204210C485B
:10092C0001F04BF80FE000220821094801F045F8CE
:10093C0000221021064801F040F801222021044831
:10094C0001F03BF800BF00BF0837BD4680BD00BFBB
:10095C00000C014080B500AF174B1B68013B032B0B
:10096C0026D801A252F823F0850900089309000843
:10097C00A1090008AF0900080120FFF755FF02206C
:10098C00FFF784FF15E00120FFF74EFF0220FFF771
:10099C00AFFF0EE00120FFF779FF0220FFF744FFC5
:1009AC0007E00120FFF7A4FF0220FFF73DFF00E066
:1009BC0000BF00BF80BD00BF6000002080B500AF4D
:1009CC0000F0FAFC00F050FA00F02EF800F068F895
:1009DC0000F0B2F80F4801F04DFC01234FF47A728D
:1009EC0000210D4800F060FA0323FA220A210B487B
:1009FC0000F05AFA04234FF4FA720F21084800F061
:100A0C0053FA05230A220A21064800F04DFA00F099
:100A1C0035FBFCE7E8000020250300085D0E00080C
:100A2C0005080008E901000880B590B000AF07F197
:100A3C00180328220021184601F0CCFF3B1D002290
:100A4C001A605A609A60DA601A610223BB61012352
:100A5C00BB621023FB6200237B6307F1180318466B
:100A6C0000F0DCFF0346002B01D000F0DFF80F2371
:100A7C007B600023BB600023FB6000233B610023F1
:100A8C007B613B1D0021184601F048FA0346002B00
:100A9C0001D000F0CBF800BF4037BD4680BD000050
:100AAC0080B586B000AF07F1080300221A605A60C7
:100ABC009A60DA603B4600221A605A601D4B4FF078
:100ACC0080421A601B4B41F63F725A60194B002250
:100ADC009A60184B0922DA60164B00221A61154BEA
:100AEC0000229A61134801F075FB0346002B01D0DC
:100AFC0000F09CF84FF48053BB6007F108031946D3
:100B0C000C4801F0F3FC0346002B01D000F08EF8EA
:100B1C0000233B6000237B603B461946054801F0EF
:100B2C00CBFE0346002B01D000F080F800BF183735
:100B3C00BD4680BDE800002080B588B000AF07F14D
:100B4C00100300221A605A609A60DA602E4B9B697F
:100B5C002D4A43F0100393612B4B9B6903F0100358
:100B6C00FB60FB68284B9B69274A43F004039361A5
:100B7C00254B9B6903F00403BB60BB68224B9B694C
:100B8C00214A43F0080393611F4B9B6903F0080350
:100B9C007B607B68002243F6FC711C4800F00DFF63
:100BAC0000223F211A4800F008FF4FF460433B61DC
:100BBC0000237B610123BB6107F110031946154823
:100BCC0000F06AFD43F6FC733B6101237B6100235B
:100BDC00BB610223FB6107F1100319460B4800F0BF
:100BEC005BFD3F233B6101237B610023BB6102233F
:100BFC00FB6107F110031946054800F04DFD00BFDD
:100C0C002037BD4680BD00BF0010024000080140E7
:100C1C00000C01400010014080B582B000AF78603C
:100C2C0000F00EFA00BF0837BD4680BD80B400AF9F
:100C3C0072B600BFFEE7000080B483B000AF7860EE
:100C4C0039607B68184A82FB03129210DB17D31AA7
:100C5C00164A13607968144B83FB01239A10CB1747
:100C6C00D21A13469B0013445B00CA1A0F4B5A60EE
:100C7C003B680D4A82FB03129210DB17D31A0B4A06
:100C8C0093603968084B83FB01239A10CB17D21A57
:100C9C0013469B0013445B00CA1A044BDA6000BF76
:100CAC000C37BD4680BC70476766666684000020C2
:100CBC0080B582B000AF0346FB71FB792E4AD35C42
:100CCC0003F00103DBB21A4604212C4800F075FE38
:100CDC00FB79294AD35C5B10DBB203F00103DBB276
:100CEC001A460821254800F068FEFB79224AD35C9D
:100CFC009B10DBB203F00103DBB21A4610211F4834
:100D0C0000F05BFEFB791C4AD35CDB10DBB203F01A
:100D1C000103DBB21A462021184800F04EFEFB7985
:100D2C00154AD35C1B11DBB203F00103DBB21A468C
:100D3C004021124800F041FEFB790F4AD35C5B1155
:100D4C00DBB203F00103DBB21A4680210B4800F042
:100D5C0034FEFB79084AD35C9B11DBB203F0010330
:100D6C00DBB21A464FF48071044800F026FE00BF37
:100D7C000837BD4680BD00BF0C2A000800080140A2
:100D8C0080B582B000AF786001224FF470512C48CE
:100D9C0000F013FE7B68032B3ED801A252F823F01F
:100DAC00BD0D0008D70D0008F10D00080B0E000852
:100DBC0000224FF48061224800F0FFFD214B1B689C
:100DCC00DBB21846FFF774FF27E000224FF40061F6
:100DDC001B4800F0F2FD1B4B5B68DBB21846FFF7BB
:100DEC0067FF1AE000224FF48051154800F0E5FD32
:100DFC00144B9B68DBB21846FFF75AFF0DE000223C
:100E0C004FF400510E4800F0D8FD0E4BDB68DBB2FE
:100E1C001846FFF74DFF00E000BF0B4B1B7801336A
:100E2C00DAB2094B1A70084B1A78084B1B789A42A5
:100E3C0002D3054B00221A7000BF0837BD4680BD97
:100E4C000008014084000020CC000020082A000883
:100E5C0080B500AF034B1B781846FFF791FF00BF1E
:100E6C0080BD00BFCC00002080B582B000AF002355
:100E7C00FB710AE0FB79184600F032F9FB79084A5D
:100E8C000021D154FB790133FB71FB79132BF1D980
:100E9C00044B00221A6000BF0837BD4680BD00BF5E
:100EAC00D0000020E4000020B0B489B000AFF8609E
:100EBC00B9607A603B605F4B1B68132B00F2B48007
:100ECC000023FB610023BB61BB687B612BE05A49AB
:100EDC00BA6913469B0013449B000B441B68002B00
:100EEC001ED05549BA6913469B0013449B000B4412
:100EFC0004331B68FA691344FB61FA697B699A42F3
:100F0C000ED94D49BA6913469B0013449B000B4400
:100F1C0004331A68FB69D31A7A6913447B6107E0BE
:100F2C00BB690133BB61434B1B68BA699A42CED390
:100F3C00404B1B68BA699A4203D17A69FB69D31A90
:100F4C007B613C4B1B683B6117E03B695A1E3A487E
:100F5C0039690B469B000B449B00184436491346D9
:100F6C009B0013449B000B4404461D460FCD0FC43D
:100F7C002B6823603B69013B3B613B69BA699A4230
:100F8C00E3D3BB695A1C2C4913469B0013449B00AA
:100F9C000B4404331968BB695A1C7B69C91A26486F
:100FAC0013469B0013449B000344043319602249ED
:100FBC00BA6913469B0013449B000B44FA681A60F1
:100FCC001D49BA6913469B0013449B000B44043320
:100FDC007A691A601849BA6913469B0013449B003E
:100FEC000B4408337A681A601349BA6913469B009C
:100FFC0013449B000B440C3300221A700E49BA693F
:10100C0013469B0013449B000B4410333A681A6040
:10101C00084B1B680133074A1360064B1B68013BE6
:10102C00064A0121D15400E000BF2437BD46B0BCB4
:10103C00704700BFE400002030010020D0000020E9
:10104C0080B400AF0B4B1B78002B0FD00A4B5B68A6
:10105C000A2B05D9084B5B680A3B074A536005E02D
:10106C00054B00225A60044B01221A7300BFBD4687
:10107C0080BC7047D000002030010020B0B586B095
:10108C0000AF154B1B68002B21D017E0134B1B68CE
:10109C009847124B3C1D1D460FCD0FC42B68236087
:1010AC000E4B1B69184600F057F8FB68002B05D057
:1010BC007868F968FA687B69FFF7F6FE074B1B7BCB
:1010CC00012BE3D0054B5B68002BDFD000E000BFA9
:1010DC001837BD46B0BD00BFE40000203001002031
:1010EC0080B483B000AF78601A497A6813469B00CD
:1010FC0013449B000B4400221A6016497A6813466D
:10110C009B0013449B000B44043300221A601149CA
:10111C007A6813469B0013449B000B44083300224F
:10112C001A600C497A6813469B0013449B000B44CD
:10113C000C3300221A7007497A6813469B0013443B
:10114C009B000B44103300221A6000BF0C37BD46C5
:10115C0080BC704730010020B0B487B000AF78601D
:10116C00384B1B68002B01D1002366E00023FB7376
:10117C0000237B610EE034497A6913469B001344CB
:10118C009B000B4410331B687A689A4208D07B6929
:10119C0001337B612B4B1B687A699A42EBD300E0DD
:1011AC0000BF29497A6913469B0013449B000B44EA
:1011BC0004331B68BB607B693B612BE03B695A1CA9
:1011CC00214839690B469B000B449B0018441E496F
:1011DC0013469B0013449B000B4404461D460FCD45
:1011EC000FC42B68236018493A6913469B001344BB
:1011FC009B000B4404331A68BB68D11812483A6937
:10120C0013469B0013449B000344043319603B6951
:10121C0001333B610B4B1B68013B3A699A42CDD3BE
:10122C000123FB73074B1B68084A0021D154054B63
:10123C001B68013B034A1360FB7B18461C37BD46F9
:10124C00B0BC7047E400002030010020D00000202A
:10125C0080B485B000AF154B9B69144A43F0010371
:10126C009361124B9B6903F00103BB60BB680F4B8E
:10127C00DB690E4A43F08053D3610C4BDB6903F0FE
:10128C0080537B607B680A4B5B68FB60FB6823F0D8
:10129C00E063FB60FB6843F08063FB60044AFB681F
:1012AC00536000BF1437BD4680BC7047001002402D
:1012BC000000014080B584B000AF78607B681B688B
:1012CC00B3F1804F13D10C4BDB690B4A43F0010394
:1012DC00D361094BDB6903F00103FB60FB6800225F
:1012EC0000211C2000F0A1F91C2000F0BAF900BF6D
:1012FC001037BD4680BD00BF0010024080B400AF67
:10130C00FEE780B400AFFEE780B400AFFEE780B428
:10131C0000AFFEE780B400AFFEE780B400AF00BFC3
:10132C00BD4680BC704780B400AF00BFBD4680BCDA
:10133C00704780B400AF00BFBD4680BC704780B51D
:10134C0000AF00F07FF800BF80BD000080B500AF9B
:10135C00024800F0DBFF00BF80BD00BFE8000020AA
:10136C0080B400AF00BFBD4680BC7047FFF7F8FFEC
:10137C000B480C490C4A002302E0D458C4500433E7
:10138C00C4188C42F9D3094A094C002301E01360BC
:10139C000432A242FBD301F0F9FAFFF70FFB7047BE
:1013AC0000000020A0000020442A0008A00000201B
:1013BC00C4020020FEE7000080B500AF084B1B689C
:1013CC00074A43F010031360032000F023F90F20A9
:1013DC0000F008F8FFF73CFF0023184680BD00BF63
:1013EC000020024080B582B000AF7860124B1A68C2
:1013FC00124B1B7819464FF47A73B3FBF1F3B2FB23
:10140C00F3F3184600F03BF90346002B01D00123FF
:10141C000EE07B680F2B0AD8002279684FF0FF3062
:10142C0000F003F9064A7B681360002300E00123F7
:10143C0018460837BD4680BD940000209C00002053
:10144C009800002080B400AF054B1B781A46054B62
:10145C001B681344034A136000BFBD4680BC704731
:10146C009C000020C002002080B400AF024B1B681F
:10147C001846BD4680BC7047C002002080B485B0C1
:10148C0000AF78607B6803F00703FB600C4BDB68F4
:10149C00BB60BA684FF6FF031340BB60FB681A02CF
:1014AC00BB68134343F0BF6343F40033BB60044A8F
:1014BC00BB68D36000BF1437BD4680BC704700BF0B
:1014CC0000ED00E080B400AF044BDB681B0A03F0B6
:1014DC0007031846BD4680BC704700BF00ED00E016
:1014EC0080B483B000AF0346FB7197F90730002B33
:1014FC000BDBFB7903F01F02064997F907305B09F8
:10150C00012000FA02F241F8232000BF0C37BD463F
:10151C0080BC704700E100E080B483B000AF0346AC
:10152C003960FB7197F90730002B0ADB3B68DAB2A4
:10153C000C4997F907301201D2B20B4483F80023FF
:10154C000AE03B68DAB20849FB7903F00F03043B6D
:10155C001201D2B20B441A7600BF0C37BD4680BCC8
:10156C00704700BF00E100E000ED00E080B489B0FE
:10157C0000AFF860B9607A60FB6803F00703FB61A9
:10158C00FB69C3F10703042B28BF0423BB61FB6970
:10159C000433062B02D9FB69033B00E000237B617B
:1015AC004FF0FF32BB6902FA03F3DA43BB681A400F
:1015BC007B699A404FF0FF317B6901FA03F3D94301
:1015CC007B680B40134318462437BD4680BC7047DC
:1015DC0080B582B000AF78607B68013BB3F1807F4F
:1015EC0001D301230FE00A4A7B68013B53600F21B2
:1015FC004FF0FF30FFF790FF054B00229A60044B31
:10160C0007221A60002318460837BD4680BD00BF6C
:10161C0010E000E080B582B000AF78607868FFF72A
:10162C002DFF00BF0837BD4680BD80B586B000AF2A
:10163C000346B9607A60FB7300237B61FFF742FFBE
:10164C0078617A68B9687869FFF790FF024697F974
:10165C000F3011461846FFF75FFF00BF1837BD4625
:10166C0080BD80B582B000AF0346FB7197F907309F
:10167C001846FFF735FF00BF0837BD4680BD80B563
:10168C0082B000AF78607868FFF7A2FF0346184677
:10169C000837BD4680BD000080B48BB000AF7860C9
:1016AC00396000237B6200233B6248E101227B6AA4
:1016BC0002FA03F3FB613B681B68FA691340BB61D8
:1016CC00BA69FB699A4240F037813B685B68A34A70
:1016DC0093425ED0A14A934275D8A14A934258D006
:1016EC009F4A93426FD89F4A934252D09D4A93424D
:1016FC0069D89D4A93424CD09B4A934263D89B4AEB
:10170C00934246D0994A93425DD8122B2AD8122B79
:10171C0059D801A252F823F09F1700087917000836
:10172C008B170008CD170008D3170008D317000833
:10173C00D3170008D3170008D3170008D3170008D5
:10174C00D3170008D3170008D3170008D3170008C5
:10175C00D3170008D3170008D31700088117000807
:10176C0095170008824A934213D02CE03B68DB6843
:10177C003B6229E03B68DB6804333B6224E03B6856
:10178C00DB6808333B621FE03B68DB680C333B6271
:10179C001AE03B689B68002B02D104233B6213E0E8
:1017AC003B689B68012B05D108233B627B68FA6977
:1017BC001A6109E008233B627B68FA695A6103E00D
:1017CC0000233B6200E000BFBB69FF2B01D87B68A4
:1017DC0001E07B6804337B61BB69FF2B02D87B6A19
:1017EC009B0002E07B6A083B9B003B617B691A68AB
:1017FC000F213B6901FA03F3DB431A40396A3B6959
:10180C0001FA03F31A437B691A603B685B6803F0C7
:10181C008053002B00F09080564B9B69554A43F047
:10182C0001039361534B9B6903F00103BB60BB68DD
:10183C00514A7B6A9B08023352F82330FB607B6A67
:10184C0003F003039B000F2202FA03F3DB43FA6855
:10185C001340FB607B68494A93420DD07B68484A31
:10186C00934207D07B68474A934201D1022304E09C
:10187C00032302E0012300E000237A6A02F0030252
:10188C0092009340FA681343FB603B497B6A9B08C8
:10189C000233FA6841F823203B685B6803F4801339
:1018AC00002B06D0384B9A683749BB6913438B60C1
:1018BC0006E0354B9A68BB69DB43334913408B60B8
:1018CC003B685B6803F40013002B06D02E4BDA68E0
:1018DC002D49BB691343CB6006E02B4BDA68BB691F
:1018EC00DB4329491340CB603B685B6803F400334E
:1018FC00002B06D0244B5A682349BB6913434B6019
:10190C0006E0214B5A68BB69DB431F4913404B600F
:10191C003B685B6803F48033002B06D01A4B1A68C3
:10192C001949BB6913430B6006E0174B1A68BB6976
:10193C00DB43154913400B607B6A01337B623B68C8
:10194C001A687B6A22FA03F3002B7FF4AFAE00BF58
:10195C0000BF2C37BD4680BC704700BF0000321062
:10196C0000003110000022100000211000001210A5
:10197C00000011100010024000000140000801405E
:10198C00000C0140001001400004014080B485B0FF
:10199C0000AF78600B467B807B689A687B8813402D
:1019AC00002B02D00123FB7301E00023FB73FB7BB4
:1019BC0018461437BD4680BC704780B483B000AF66
:1019CC0078600B467B8013467B707B78002B03D0B2
:1019DC007A887B681A6103E07B881A047B681A6139
:1019EC0000BF0C37BD4680BC704780B485B000AFDB
:1019FC0078600B467B807B68DB68FB607A88FB68D1
:101A0C0013401A04FB68D9437B880B401A437B684C
:101A1C001A6100BF1437BD4680BC704780B586B0D4
:101A2C0000AF78607B68002B01D101236CE27B68EE
:101A3C001B6803F00103002B00F08780924B5B685E
:101A4C0003F00C03042B0CD08F4B5B6803F00C03DE
:101A5C00082B12D18C4B5B6803F48033B3F5803FB9
:101A6C000BD1894B1B6803F40033002B6CD07B68C3
:101A7C005B68002B68D1012346E27B685B68B3F599
:101A8C00803F06D1804B1B687F4A43F48033136040
:101A9C002EE07B685B68002B0CD17B4B1B687A4A71
:101AAC0023F480331360784B1B68774A23F480232C
:101ABC0013601DE07B685B68B3F5A02F0CD1724BF3
:101ACC001B68714A43F4802313606F4B1B686E4A8A
:101ADC0043F4803313600BE06B4B1B686A4A23F4AE
:101AEC0080331360684B1B68674A23F480231360B0
:101AFC007B685B68002B13D0FFF7B6FC386108E0FD
:101B0C00FFF7B2FC02463B69D31A642B01D90323BD
:101B1C00FAE15D4B1B6803F40033002BF0D014E0AA
:101B2C00FFF7A2FC386108E0FFF79EFC02463B6918
:101B3C00D31A642B01D90323E6E1534B1B6803F43E
:101B4C000033002BF0D100E000BF7B681B6803F072
:101B5C000203002B63D04C4B5B6803F00C03002B8F
:101B6C000BD0494B5B6803F00C03082B1CD1464B84
:101B7C005B6803F48033002B16D1434B1B6803F0D6
:101B8C000203002B05D07B681B69012B01D00123BC
:101B9C00BAE13D4B1B6823F0F8027B685B69DB0004
:101BAC00394913430B603AE07B681B69002B20D04A
:101BBC00364B01221A60FFF757FC386108E0FFF73B
:101BCC0053FC02463B69D31A022B01D903239BE138
:101BDC002D4B1B6803F00203002BF0D02A4B1B6823
:101BEC0023F0F8027B685B69DB00274913430B6029
:101BFC0015E0264B00221A60FFF736FC386108E02E
:101C0C00FFF732FC02463B69D31A022B01D903239E
:101C1C007AE11D4B1B6803F00203002BF0D17B68AB
:101C2C001B6803F00803002B3AD07B689B69002BE0
:101C3C0019D0174B01221A60FFF716FC386108E027
:101C4C00FFF712FC02463B69D31A022B01D903237E
:101C5C005AE10D4B5B6A03F00203002BF0D001201C
:101C6C0000F09AFA1CE00A4B00221A60FFF7FCFB0A
:101C7C0038610FE0FFF7F8FB02463B69D31A022BE1
:101C8C0008D9032340E100BF00100240000042428B
:101C9C00800442429E4B5B6A03F00203002BE9D1A5
:101CAC007B681B6803F00403002B00F0A680002364
:101CBC00FB75974BDB6903F08053002B0DD1944BD4
:101CCC00DB69934A43F08053D361914BDB6903F09A
:101CDC008053BB60BB680123FB758E4B1B6803F400
:101CEC008073002B18D18B4B1B688A4A43F480738A
:101CFC001360FFF7B9FB386108E0FFF7B5FB02464C
:101D0C003B69D31A642B01D90323FDE0814B1B687B
:101D1C0003F48073002BF0D07B68DB68012B06D1B9
:101D2C007B4B1B6A7A4A43F0010313622DE07B68FC
:101D3C00DB68002B0CD1764B1B6A754A23F0010330
:101D4C001362734B1B6A724A23F0040313621CE088
:101D5C007B68DB68052B0CD16D4B1B6A6C4A43F01E
:101D6C00040313626A4B1B6A694A43F00103136252
:101D7C000BE0674B1B6A664A23F001031362644B4A
:101D8C001B6A634A23F0040313627B68DB68002B35
:101D9C0015D0FFF769FB38610AE0FFF765FB0246D7
:101DAC003B69D31A41F28832934201D90323ABE049
:101DBC00574B1B6A03F00203002BEED014E0FFF725
:101DCC0053FB38610AE0FFF74FFB02463B69D31A1D
:101DDC0041F28832934201D9032395E04C4B1B6AA4
:101DEC0003F00203002BEED1FB7D012B05D1484BF8
:101DFC00DB69474A23F08053D3617B68DB69002B96
:101E0C0000F08180424B5B6803F00C03082B61D01F
:101E1C007B68DB69022B46D13F4B00221A60FFF72F
:101E2C0023FB386108E0FFF71FFB02463B69D31A1E
:101E3C00022B01D9032367E0354B1B6803F00073B9
:101E4C00002BF0D17B681B6AB3F5803F08D1304B77
:101E5C005B6823F400327B689B682D4913434B600D
:101E6C002B4B5B6823F474127B68196A7B685B6A82
:101E7C000B43274913434B60274B01221A60FFF792
:101E8C00F3FA386108E0FFF7EFFA02463B69D31A20
:101E9C00022B01D9032337E01D4B1B6803F00073A1
:101EAC00002BF0D02FE01C4B00221A60FFF7DCFA5D
:101EBC00386108E0FFF7D8FA02463B69D31A022BC7
:101ECC0001D9032320E0124B1B6803F00073002B95
:101EDC00F0D118E07B68DB69012B01D1012313E001
:101EEC000B4B5B68FB60FB6803F480327B681B6AFE
:101EFC009A4206D1FB6803F470127B685B6A9A42C3
:101F0C0001D0012300E0002318461837BD4680BDE0
:101F1C0000100240007000406000424280B584B066
:101F2C0000AF786039607B68002B01D10123D0E0D1
:101F3C006A4B1B6803F007033A689A4210D9674B47
:101F4C001B6823F0070265493B6813430B60634B26
:101F5C001B6803F007033A689A4201D00123B8E0EA
:101F6C007B681B6803F00203002B20D07B681B6886
:101F7C0003F00403002B05D0594B5B68584A43F41B
:101F8C00E06353607B681B6803F00803002B05D0EB
:101F9C00534B5B68524A43F460535360504B5B683D
:101FAC0023F0F0027B689B684D4913434B607B68C0
:101FBC001B6803F00103002B40D07B685B68012B8E
:101FCC0007D1474B1B6803F40033002B15D10123B9
:101FDC007FE07B685B68022B07D1414B1B6803F0E9
:101FEC000073002B09D1012373E03D4B1B6803F0F8
:101FFC000203002B01D101236BE0394B5B6823F00A
:10200C0003027B685B68364913434B60FFF72CFA7D
:10201C00F8600AE0FFF728FA0246FB68D31A41F28F
:10202C008832934201D9032353E02D4B5B6803F0B4
:10203C000C027B685B689B009A42EBD1274B1B68B8
:10204C0003F007033A689A4210D2244B1B6823F022
:10205C00070222493B6813430B60204B1B6803F0BB
:10206C0007033A689A4201D0012332E07B681B686F
:10207C0003F00403002B08D0194B5B6823F4E062D7
:10208C007B68DB68164913434B607B681B6803F065
:10209C000803002B09D0124B5B6823F460527B6859
:1020AC001B69DB000E4913434B6000F021F802461C
:1020BC000B4B5B681B0903F00F030A49CB5C22FA3C
:1020CC0003F3094A1360094B1B681846FFF78AF99A
:1020DC00002318461037BD4680BD00BF00200240CB
:1020EC0000100240182A00089400002098000020DC
:1020FC0080B487B000AF0023FB600023BB600023DB
:10210C007B6100237B6000233B611E4B5B68FB60A3
:10211C00FB6803F00C03042B02D0082B03D027E040
:10212C00194B3B6127E0FB689B0C03F00F03174A2C
:10213C00D35C7B60FB6803F48033002B10D0114B15
:10214C005B685B0C03F00103114AD35CBB607B68DA
:10215C000D4A02FB03F2BB68B2FBF3F37B6104E0B4
:10216C007B680C4A02FB03F37B617B693B6102E0F9
:10217C00054B3B6100BF3B6918461C37BD4680BC14
:10218C00704700BF0010024000127A00282A000895
:10219C00382A000800093D0080B485B000AF786093
:1021AC000A4B1B680A4AA2FB03235B0A7A6802FBF0
:1021BC0003F3FB6000BFFB685A1EFA60002BF9D1D9
:1021CC0000BF00BF1437BD4680BC70479400002090
:1021DC00D34D621080B582B000AF78607B68002B65
:1021EC0001D1012341E07B6893F83D30DBB2002B39
:1021FC0006D17B68002283F83C207868FFF75AF8F8
:10220C007B68022283F83D207B681A687B68043364
:10221C001946104600F056FA7B68012283F84620D6
:10222C007B68012283F83E207B68012283F83F20E3
:10223C007B68012283F840207B68012283F84120CF
:10224C007B68012283F842207B68012283F84320BB
:10225C007B68012283F844207B68012283F84520A7
:10226C007B68012283F83D20002318460837BD46C1
:10227C0080BD000080B485B000AF78607B6893F8B7
:10228C003D30DBB2012B01D0012335E07B6802220B
:10229C0083F83D207B681B68DA687B681B6842F01A
:1022AC000102DA607B681B68164A934209D07B688E
:1022BC001B68B3F1804F04D07B681B68124A9342B1
:1022CC0011D17B681B689B6803F00703FB60FB68FC
:1022DC00062B10D07B681B681A687B681B6842F061
:1022EC0001021A6007E07B681B681A687B681B6830
:1022FC0042F001021A60002318461437BD4680BC18
:10230C00704700BF002C01400004004080B584B031
:10231C0000AF78607B681B68DB68FB607B681B68C0
:10232C001B69BB60BB6803F00203002B20D0FB6869
:10233C0003F00203002B1BD07B681B686FF00202BA
:10234C001A617B6801221A777B681B689B6903F012
:10235C000303002B03D0786800F098F905E0786847
:10236C0000F08BF9786800F09AF97B6800221A77F4
:10237C00BB6803F00403002B20D0FB6803F00403BC
:10238C00002B1BD07B681B686FF004021A617B6802
:10239C0002221A777B681B689B6903F44073002B3D
:1023AC0003D0786800F072F905E0786800F065F900
:1023BC00786800F074F97B6800221A77BB6803F028
:1023CC000803002B20D0FB6803F00803002B1BD064
:1023DC007B681B686FF008021A617B6804221A770D
:1023EC007B681B68DB6903F00303002B03D0786860
:1023FC0000F04CF905E0786800F03FF9786800F0DF
:10240C004EF97B6800221A77BB6803F01003002B8F
:10241C0020D0FB6803F01003002B1BD07B681B68DB
:10242C006FF010021A617B6808221A777B681B68B0
:10243C00DB6903F44073002B03D0786800F026F9B5
:10244C0005E0786800F019F9786800F028F97B68E5
:10245C0000221A77BB6803F00103002B0CD0FB6839
:10246C0003F00103002B07D07B681B686FF001029F
:10247C001A617868FEF7D0FBBB6803F08003002B71
:10248C000CD0FB6803F08003002B07D07B681B6823
:10249C006FF080021A61786800F06FFABB6803F085
:1024AC004003002B0CD0FB6803F04003002B07D03B
:1024BC007B681B686FF040021A61786800F0F8F8CE
:1024CC00BB6803F02003002B0CD0FB6803F0200347
:1024DC00002B07D07B681B686FF020021A617868AC
:1024EC0000F042FA00BF1037BD4680BD80B584B005
:1024FC0000AF786039600023FB737B6893F83C3045
:10250C00012B01D10223B4E07B68012283F83C202B
:10251C007B68022283F83D207B681B689B68BB604C
:10252C00BB6823F07703BB60BB6823F47F43BB60BD
:10253C007B681B68BA689A603B681B68B3F5005FE0
:10254C003ED0B3F5005F00F28780B3F5805F00F0FA
:10255C008680B3F5805F7FD8702B1AD0702B7BD818
:10256C00602B50D0602B77D8502B3CD0502B73D88D
:10257C00402B58D0402B6FD8302B64D0302B6BD8DD
:10258C00202B60D0202B67D8002B5CD0102B5AD07E
:10259C0062E07B6818683B6899683B685A683B68DE
:1025AC00DB6800F06AF97B681B689B68BB60BB68E2
:1025BC0043F07703BB607B681B68BA689A604FE096
:1025CC007B6818683B6899683B685A683B68DB68AD
:1025DC0000F053F97B681B689A687B681B6842F4AF
:1025EC0080429A603CE07B6818683B6859683B689D
:1025FC00DB681A4600F0CAF87B681B685021184645
:10260C0000F021F92CE07B6818683B6859683B683E
:10261C00DB681A4600F0E8F87B681B6860211846F6
:10262C0000F011F91CE07B6818683B6859683B683E
:10263C00DB681A4600F0AAF87B681B684021184634
:10264C0000F001F90CE07B681A683B681B681946BE
:10265C00104600F0F8F803E00123FB7300E000BF24
:10266C007B68012283F83D207B68002283F83C20A4
:10267C00FB7B18461037BD4680BD80B483B000AFDD
:10268C00786000BF0C37BD4680BC704780B483B007
:10269C0000AF786000BF0C37BD4680BC704780B47B
:1026AC0083B000AF786000BF0C37BD4680BC70476C
:1026BC0080B483B000AF786000BF0C37BD4680BCDF
:1026CC007047000080B485B000AF786039607B68DB
:1026DC001B68FB607B682B4A934207D07B68B3F185
:1026EC00804F03D07B68284A934208D1FB6823F0C3
:1026FC007003FB603B685B68FA681343FB607B68A4
:10270C00204A934207D07B68B3F1804F03D07B689B
:10271C001D4A934208D1FB6823F44073FB603B686D
:10272C00DB68FA681343FB60FB6823F080023B68AC
:10273C005B691343FB607B68FA681A603B689A68B4
:10274C007B68DA623B681A687B689A627B680D4A20
:10275C00934203D13B681A697B681A637B68012238
:10276C005A617B681B6903F00103002B05D07B6861
:10277C001B6923F001027B681A6100BF1437BD4648
:10278C0080BC7047002C01400004004080B487B02E
:10279C0000AFF860B9607A60FB681B6A7B61FB680C
:1027AC001B6A23F00102FB681A62FB689B693B61A0
:1027BC003B6923F0F0033B617B681B013A691343CF
:1027CC003B617B6923F00A037B617A69BB68134325
:1027DC007B61FB683A699A61FB687A691A6200BF8F
:1027EC001C37BD4680BC704780B487B000AFF86022
:1027FC00B9607A60FB681B6A7B61FB681B6A23F01B
:10280C001002FB681A62FB689B693B613B6923F40D
:10281C0070433B617B681B033A6913433B617B69E3
:10282C0023F0A0037B61BB681B017A6913437B61B6
:10283C00FB683A699A61FB687A691A6200BF1C37B7
:10284C00BD4680BC704780B485B000AF78603960FD
:10285C007B689B68FB60FB6823F07003FB603A6845
:10286C00FB68134343F00703FB607B68FA689A60CC
:10287C0000BF1437BD4680BC704780B487B000AF32
:10288C00F860B9607A603B60FB689B687B617B6930
:10289C0023F47F437B613B681A027B681A43BB6855
:1028AC0013437A6913437B61FB687A699A6000BFB2
:1028BC001C37BD4680BC704780B485B000AF7860D3
:1028CC0039607B6893F83C30012B01D1022341E045
:1028DC007B68012283F83C207B68022283F83D2030
:1028EC007B681B685B68FB607B681B689B68BB60D4
:1028FC00FB6823F07003FB603B681B68FA681343AA
:10290C00FB607B681B68FA685A607B681B68144A1A
:10291C00934209D07B681B68B3F1804F04D07B686D
:10292C001B68104A93420CD1BB6823F08003BB6038
:10293C003B685B68BA681343BB607B681B68BA680A
:10294C009A607B68012283F83D207B68002283F823
:10295C003C20002318461437BD4680BC704700BF8E
:10296C00002C01400004004080B483B000AF7860BC
:10297C0000BF0C37BD4680BC704780B483B000AF3D
:10298C00786000BF0C37BD4680BC704770B5002620
:10299C000C4D0D4C641BA410A64209D100F022F87A
:1029AC0000260A4D0A4C641BA410A64205D170BD2A
:1029BC0055F8043B98470136EEE755F8043B984729
:1029CC000136F2E73C2A00083C2A00083C2A0008A1
:1029DC00402A000803460244934200D1704703F892
:1029EC00011BF9E7F8B500BFF8BC08BC9E46704760
:0C29FC00F8B500BFF8BC08BC9E46704750
:102A080004000000407924301912027800100000F8
:102A18000000000000000000010203040607080986
:102A280002030405060708090A0B0C0D0E0F101007
:042A38000102000097
:042A3C00310100085C
:042A40000D0100087C
:102A44000100000000000000000000000000000081
:102A54000100000000000000000000000000000071
:102A64000100000000000000000000000000000061
:102A74000100000000000000000000000000000051
:102A84000100000000000000000000000000000041
:102A9400F40100000000000000000000000000003D
:102AA4000100000005000000020000000300000017
:102AB4000500000002000000030000000500000003
:102AC40003000000030000000200000005000000F5
:102AD4000500000000127A00100000000100000050
:040000050800137963
:00000001FF
